:1000000000000420750300005D0300005F03000092
:1000100061030000630300006503000000000000AE
:100020000000000000000000000000006703000066
:1000300069030000000000006B0300006D03000076
:100040006F0300006F03000029240000C524000096
:100050006F0300006F0300006F0300006F030000D8
:100060006F0300006F0300006F0300006F030000C8
:100070006F0300006F0300006F0300006F030000B8
:100080006F0300006F0300006F0300006F030000A8
:100090006F0300006F0300006F0300006F03000098
:1000A0006F0300006F0300006F0300006F03000088
:1000B0006F0300006F03000000000000000000005C
:1000C0006F0300006F0300006F0300006F03000068
:1000D0006F0300006F0300006F0300006F03000058
:1000E0006F0300006F0300006F03000000000000BA
:1000F000000000006F030000000000006F0300001C
:1001000000000000000000000000000000000000EF
:1001100000000000000000000000000000000000DF
:1001200000000000000000000000000000000000CF
:1001300000000000000000000000000000000000BF
:1001400000000000000000000000000000000000AF
:10015000000000000000000000000000000000009F
:10016000000000000000000000000000000000008F
:10017000000000000000000000000000000000007F
:10018000000000000000000000000000000000006F
:10019000000000000000000000000000000000005F
:1001A000000000000000000000000000000000004F
:1001B000000000000000000000000000000000003F
:1001C000000000000000000000000000000000002F
:1001D000000000000000000000000000000000001F
:1001E000000000000000000000000000000000000F
:1001F00000000000000000000000000000000000FF
:10020000354936480A1A02D0072291438D463449AF
:1002100034480A1A06D00722914381F30988022242
:1002200082F3148830483149314A00F044F83148AB
:100230003149324A00F03FF831483249324A00F041
:100240003AF832483249334A00F035F832483349F7
:10025000334A00F030F833483349344A00F02BF881
:1002600033483449344A00F026F8344834490022EF
:1002700000F02CF833483449002200F027F83348C6
:100280003349091A082902DB002202604160314A21
:1002900090471F481F49884205D00268043003B4C4
:1002A000904703BCF7E700208646EC46002000217B
:1002B000294A9047FEE7884207D0521A05D00378B2
:1002C00001300B700131013AF9D17047884202D0F8
:1002D00002700130FAE770470000042000E00320BC
:1002E0000000042000000420305000000000002026
:1002F00040000020D0030000D0030000604A00004E
:10030000305000000000002000000020AC4A000037
:10031000AC4A0000AC4A0000AC4A0000AC4A000005
:10032000AC4A0000AC4A0000AC4A00002E5000006D
:1003300070500000400000204000002040000020DD
:10034000EE0B0020F00B0020F00B0020F00B002043
:10035000F02B00209D030000F1310000FEE7FEE7D6
:10036000FEE7FEE7FEE7FEE7FEE7FEE7FEE7FEE765
:1003700000F002B8FFF7FCBF0F484FF007018843B9
:1003800085460E4880470E48016841F470010160BF
:10039000BFF34F8FBFF36F8FFFF732BF09480A4992
:1003A0000A4A884207D0521A05D0037801300B70F0
:1003B0000131013AF9D17047000004203D470000A7
:1003C00088ED00E0AC4A00000000002000000020A2
:1003D000F0B595B01D46164608460C4601F032FFB2
:1003E0001A9B0D93CDE9086500252B46082205A927
:1003F00020460A958DF82C500C9501F040FF079B84
:100400000293069B03939DF814308DF8115003F06E
:100410000302012A1DD1BDF81420059DC3F3C203B8
:10042000C2F383168DF81030B20008230EA92046BF
:1004300001F025FFC5F3952508AB0093324602ABCA
:100440000EA9284600F0C0FB204601F0FFFE15B0C3
:10045000F0BD022AF8D1BDF81650C3F3C203C5F3AC
:1004600089158DF810300827082D2E4628BF08263C
:100470003B4632460EA9204601F001FFAD1B08ABFA
:1004800002AA31460EA8374400F002FC002DEBD141
:10049000DAE7704707B5044B0093044A4023FFF79F
:1004A00097FF03B05DF804FB010500004100002048
:1004B00030B5104D0FCD89B06C460FC495E80F00D4
:1004C00084E80F004FF0FF330622CDE90023CDE989
:1004D000023309484FF0EB7300226946069301F09E
:1004E00065FF08B100F072FC044B00221A7009B0DD
:1004F00030BD00BFAC4A00000000002040000020DA
:1005000038B50D4B0D4D002018700D4804782D5D49
:10051000D2B21C4665B1043002F022FE08B100F0F0
:1005200055FC084B1A7812B12378002BFBD038BD4C
:100530000C3002F0D1FBF1E781000020A80600207A
:10054000000000204000002008B50848084A037851
:10055000D35C33B1043002F09DFDBDE80840FFF7E5
:10056000A7BF0C3002F064FBF7E700BF00000020DB
:10057000A8060020FFF79CBF08B5FFF7FBFF044863
:10058000042100F089FA034B01225A7108BD00BF13
:10059000884A000014000020037813F0040216D0EB
:1005A00003F00303012B03D0022B09D00120704775
:1005B0000A6800880232C0F3831002440A60F5E73B
:1005C0000B684288023303EB92130B60EEE7104690
:1005D000704700002DE9F04F044685B0861C0020CE
:1005E0000F46154601F0F2F9454801683960D0E937
:1005F0000132134401335B1A824600F21C4700F5B6
:10060000836900F21448B3421BD30020002D72D03E
:1006100004F00F039B0143F0050363F30F00DAF8C6
:100620000020DAF808301340033316444AF8230058
:100630000020CAF8006001F0CBF9012005B0BDE848
:10064000F08F0121384601F0E8F9484601F0FDF944
:10065000404601F0FAF9DAF80400DAF808B0009040
:1006600000EA0B0003300AEB80006946FFF794FFB5
:10067000009B50BB0BEA03020AEB820203F1020C5F
:10068000D2680192013303EA0B0B0AEB8B0B02F0E9
:100690000302012ADBF80C10CDF800C023D0022A97
:1006A00016D08346404601F0D3F910B1009BCAF83A
:1006B00004305946384601F0B0F9DAE90123134411
:1006C000DAF8002001339B1A9DE70BEA0300C9E723
:1006D000BDF80630C3F3891303334FEA114B0CEB1B
:1006E00093030093DEE7BDF80430C3F383134FEAAE
:1006F000114B6344F5E7A40544F006008FE700BF03
:10070000540100200B4B0C48FF2210B59A600022C8
:10071000C3F81824C3E90022C3F81424012283F883
:10072000202401F048FD044610B9044801F0B1FD51
:10073000204610BD54010020984A0000004B0000E4
:1007400030B50A4C71B10A4A0A49121BD20800237B
:100750009A4201D1002030BD31F82350854202D0A9
:100760000133F5E7034654F83300F4E7604A00002C
:10077000884A000000000020094B013903EBC0004B
:10078000032909D8DFE801F00A02040604207047B3
:100790000079704740797047002070470220704709
:1007A000604A0000034BD3E90030C31A5842584155
:1007B000704700BF540100202DE9F04385B0FFF7DA
:1007C000F1FF0646002840F0F5807B4DC5F818047F
:1007D000BFF34F8F6B68AC6800932340033305EB86
:1007E00083006946FFF7D8FE009B18B1D5F818249E
:1007F000002A5FD004EA0302991C013305EB820250
:10080000234005EB8303D268DB68029302F0030305
:10081000022B0192009160D1BDF806306748C3F306
:100820008917502FB84628BF4FF0500868F38F1330
:1008300008F10801ADF8063001F0D5FC06460028A5
:1008400000F0A38001F0FEFC0023082201A930463D
:1008500001F00BFD009924EA01020132B8EB820F8E
:100860004FEA820332D95FFA88F85BB32140DCB2E9
:10087000A8EB040803315FFA88F9A046504C05EB59
:10088000810108234246304601F0EFFC34B108F103
:1008900008034A462146304601F0E7FC009B033737
:1008A00003EB97070097D5F81834002B49D1D5F8FA
:1008B000104459E02A689A428FD86A60304605B0E1
:1008C000BDE8F0833E491C469946DAE70C40E11C3E
:1008D0000823424605EB8101DDE7012B55D1BDF828
:1008E00004303648C3F38311062928BF062161F37B
:1008F000891302318900ADF8043001F074FC06461A
:10090000002842D001F09EFC0023082201A93046B5
:1009100001F0ABFC0027BDF80420C2F38312BB003A
:10092000974203F10803BED200994A1C21400331CB
:10093000009205EB81010422304601F096FC01375C
:10094000E9E7304601F082FCFFF72CFF80F0010060
:10095000C6B2B3E7E3685B7923B1236831461B680D
:1009600020469847E3681C68002CF3D1304601F01C
:100970006DFC204601F02AF8D5F818340BB9009B1D
:100980006B60002001F024F8DEE7D5F8104454B97C
:100990000C4B0D480D49C01AC008000440F002007D
:1009A00000F062F8D0E7236820469B689847E36828
:1009B0001C68ECE7002681E754010020984A0000FB
:1009C00060010020604A0000804A0000E94A0000FF
:1009D0002DE9F74F224D04460F46924601A9012208
:1009E0001846D5F808909B46FFF7F4FD20B3019E0A
:1009F0004FF00008B21CD84508EB020126D1194877
:100A0000002100F0E7FF80F31000000440EA1440EA
:100A1000E400731C04F0380403EA090306EA09063B
:100A200044F0010405EB8303033644EA881444EAE6
:100A30008724D86045F8264095F820341BB1FFF78D
:100A4000BBFE0028FBD103B0BDE8F08F09EA01012D
:100A500005EB81015AF82830CB6008F10108CAE79C
:100A6000540100207005002000231A46FFF7B0BF94
:100A700007B50123019201AAFFF7AAFF03B05DF8B1
:100A800004FB07B5CDE9002302236A46FFF7A0FF68
:100A900003B05DF804FB000030B50F49D1F8102415
:100AA00003460020144634B9DC6820714AB9C1F805
:100AB0001034226030BDE4682579854206D0246870
:100AC000F1E7D268116821601360F3E701300A286A
:100AD000E8D14FF0FF30EDE754010020094A38B566
:100AE0000123D2F8104482F820341D4604B938BDE1
:100AF000E3685D71236820465B689847E3681C687B
:100B0000F4E700BF5401002007B503460846197AF0
:100B1000052911D05B7A2BB1094A0A49019001F0ED
:100B20003AF901980849019001F035F9019803B0AC
:100B30005DF804EB01F024B9002AF8D0F2E700BF19
:100B40000C4B00004A4D00002E4B000030B5C3880E
:100B500085B004460D4633B1144A00921449154A33
:100B6000284601F018F9217A05291DD0637A4BB186
:100B7000A088FFF701FE104B104953F820202846AB
:100B800001F009F9227A0E4BA08853F82220039233
:100B90000021FFF7D5FD039A0A490346284605B010
:100BA000BDE8304001F0F7B805B030BD0C4B000097
:100BB000194B0000114B0000984B00004A4D0000FB
:100BC000BC4B0000314B00002DE9F04385B01F46BF
:100BD0000C9D002395F80C902B7306460C4690460E
:100BE00029463846FFF7B2FFB8F1060F09D8DFE80B
:100BF00008F00412181F283340003146284601F03F
:100C0000CAF8002229463846FFF77EFF85F80C9087
:100C100005B0BDE8F08322683146284601F0BBF8F4
:100C2000EFE7D4E900233146284601F0B4F8E8E7BD
:100C3000A36800933146D4E90023284601F0ABF8BD
:100C4000DFE7E3680193A36800933146D4E900230A
:100C5000284601F0A0F8D4E723690293E3680193E2
:100C6000A36800933146D4E90023284601F093F8A5
:100C7000C7E76369039323690293E3680193A36859
:100C800000933146D4E90023284601F084F8B8E700
:100C900008292DE9F74F80460E4617461C463CD8DA
:100CA000002593F80C901D7319461046FFF74EFF70
:100CB000DFF888A0DFF888B0AE4231D918F80520F7
:100CC0005946204601F067F80135082DF4D119493D
:100CD000194DDFF870A0204601F05DF84FF0000BD1
:100CE0005E4522D918F80B207E2A05D810460192BD
:100CF00003F058FE019A00B92E225146204601F019
:100D00004AF80BF1010BBBF1080FE9D10122214692
:100D10003846FFF7F9FE84F80C9003B0BDE8F08F79
:100D20005146204601F037F8CEE72946204601F02B
:100D300032F8E6E7454B0000434B0000414B000012
:100D40003B4B0000474B0000074B1B5C1F2B86BF33
:100D5000064903F01F034FF0A041012202FA03F3FA
:100D6000C1F80835704700BFD04B000000030050A9
:100D700008B50020FFF7E8FF0120FFF7E5FF02209C
:100D8000FFF7E2FFBDE808400320FFF7DDBFC20721
:100D900010B504460CD54FF0A0430322C3F8342706
:100DA000C3F83827C3F83C27C3F84027FFF7E0FF14
:100DB000A3070AD54FF0A0430C22C3F82C27C3F891
:100DC0003027C3F86027C3F8642710BD1FB5002182
:100DD000039001AA44F20100CDE9011100F004F8EA
:100DE00005B05DF804FB000010B572B6FFF776FEA3
:100DF000FFF7E2FC0028FBD1104B114C1149E41A1B
:100E0000E408240444F00100FFF72EFE0E4B1B689B
:100E1000DB0700D500BE0D4944F00200FFF724FEB9
:100E2000BFF34F8F0A490B4BCA6802F4E0621343C9
:100E3000CB60BFF34F8F00BFFDE700BF604A0000EB
:100E4000804A0000D44B0000F0ED00E0E04B0000D1
:100E500000ED00E00400FA051F2886BF054A00F0F7
:100E60001F004FF0A042012303FA00F0C2F808056A
:100E7000704700BF000300507FB50E4C94F85840F7
:100E80001F2C86BF0C4E04F01F044FF0A046012516
:100E900005FA04F4CDE90001CDE902230748C6F8BC
:100EA0000C450022694601F077FC08B1FFF78EFF80
:100EB00004B070BD1006002000030050F44B000089
:100EC000F8B5254B93F82350002D42D146B2002EA1
:100ED00033DB012483F823405C1900F07F0784F89A
:100EE00028700F0E84F829700F0C84F82A7040289F
:100EF0004FEA112784F82B7084F82C1027D048284B
:100F00000CBF8721FF21023A012A94BF052201224A
:100F100083F82420002E1D44A8BF93F824300F4AE4
:100F200085F82D10B8BF01230E33A2F11000DBB2FB
:100F30000621FFF7A1FF0020F8BD022483F823401B
:100F400077249C624FF47F449C850625C4E7952155
:100F5000D9E71120F0E700BF100600204806002066
:100F60002DE9F843534DEE8B40F2D914A6422C469E
:100F700038D0B6F5ED7F08D2A6B140F2C715AE4223
:100F800029D00023E383032055E0B6F5F07F4FF02E
:100F9000000109D0B6F5F67FF3D185F8231019705A
:100FA000E98342E0AD8AE582E68AFF255EB9424ADE
:100FB00084F8285002230121A2F11000FFF75CFF02
:100FC0004FF4F67368E0002684F828500325268441
:100FD000268384F8235044F62065042794F8236080
:100FE000032E0FD0238B934243D3E38A324A013B33
:100FF000E38201210223A2F11000FFF73DFF4FF42D
:10100000F07349E0268C0136B6B2AE4226840ED883
:101010008446002943D010F8016BFF2E0DD0FE2E20
:101020000ED005221A700023E383022003E0022081
:1010300018700023E383BDE8F8830139C9B2E7E7FC
:101040004E1EF1B291420E4684F8237028BF164618
:101050004FF000084645D4F80CE003D826837644C8
:10106000E660BBE71CF8019F0EF8089008F1010844
:10107000F0E7D51AADB2F02D28BFF025EBB2E2684B
:101080000E480121FFF7F8FEE3682B44E360238B51
:101090001D44258340F2D913E3830120CBE7064AA0
:1010A00010230121A2F11000FFF7E6FE40F2C71362
:1010B000F2E700BF10060020480600203806002096
:1010C00010B5164B93F822400CB393F82240032C32
:1010D0001FD102B3042483F822409C7A9A82240709
:1010E00058BF4902012AC3E90301DA824FF0000424
:1010F0004FF001028CBF522051209C83FFF7E0FE8D
:10110000034610B1FFF762FE2346184610BD0823C0
:10111000FBE71123F9E70723F7E700BF10060020DC
:1011200038B5184B154693F822202AB393F822209D
:10113000032A23D125B3052283F822209A7A9D829F
:10114000140758BF49020024012DC3E90301DD82C1
:101150009C8308D12A465820FFF7B2FE08B1FFF75A
:1011600035FE002038BD02F00702012A0FBF5920CA
:1011700001222946D720EFE70820F3E71120F1E705
:101180000720EFE71006002070B5364C94F82230A7
:1011900088B005460E46002B5FD100295FD0C0788D
:1011A000FF285CD06B78FF2B59D02B78FF2B56D0C3
:1011B000AB78FF2B53D01F288ABF00F01F030346D4
:1011C000294A84F8580098BF4FF0A04203F5E07315
:1011D000032142F82310FFF73FFEAB788DF8003073
:1011E0002B788DF801306B788DF80230FF238DF865
:1011F00003304FF60673ADF804304FF0806302936E
:101200001A4A1B4800236946ADF80C3001F068F813
:1012100008B1FFF7DBFDA37A1648266023F00F0321
:10122000A372FF2384F82830134B0122CDE9043246
:101230000025103384F8222006932A460A2304A9A5
:10124000079384F8235001F0A7FA034610B1FFF783
:10125000BDFD2B46184608B070BD0823FAE70723EA
:10126000F8E700BF1006002000030050D112000074
:10127000F04B0000F44B00003806002010B5114C74
:1012800094F82230CBB194F82230032B17D10E48BA
:1012900001F038FA94F858301F2B86BF03F01F0373
:1012A0000A4A4FF0A04203F5E073002042F8230001
:1012B00084F8230084F8220010BD0820FCE71120E8
:1012C000FAE700BF10060020F44B000000030050B6
:1012D000F7B5B94CC668E38A057C07461BB994F894
:1012E0005800FFF7B9FD94F82300431E012B67D87F
:1012F0007A681778A91F4C2FC9B206F1060303D1EB
:1013000041B1E91FC9B2F31D1A460D4613463DB956
:101310004C2F1FD1013B012507E0013DEDB2F5E760
:101320001978FF2902F10102F7D0022844D10122E5
:1013300084F823201A7812F0FE0F3DD194F824305F
:101340009E4A0E33DBB20621A2F10A00FFF794FD9C
:1013500003B0F0BD94F82230012B2BD094F822106A
:10136000012204298DF80520CBB216D004D8013B08
:10137000934207D903200DE0052BFBD102238DF802
:1013800004300CE003238DF8045084F82230FFF77A
:1013900075FF20B1FFF71AFD01E08DF8042094F8E5
:1013A0005800FFF759FD032384F82230236801A871
:1013B0009847CDE72B46B8E7002284F823201E4645
:1013C00094F82230D9B2013B042B00F2CB82DFE843
:1013D00013F005000A00C9027A01C201022384F851
:1013E00022300023A383A18B3378B1F50E7F00F068
:1013F000CC802CD840F21322914273D0B1F5057FF6
:1014000008D2002963D0B1F5047F55D00023A3830F
:1014100006216DE040F21922914200F08D8040F2E9
:1014200026229142F2D1580740F1E680A37A0122A8
:1014300062F30203A372238C01339BB2B3F5FA6FFC
:10144000238440F297800023A383022150E040F2DE
:101450006122914200F0E18015D840F24D22914284
:1014600000F0CA8040F253229142CFD113F0FC0F1A
:101470003BD1D6F801301BBA5A0042BFA37A43F0E1
:101480000803A37287E040F26B22914200F0D780FC
:10149000B1F51C7FBAD101AB102229463046FFF7C7
:1014A0005FFD01287FF654AF9DF80410002900F07D
:1014B000D1800023A3831BE0012200214020FFF7FD
:1014C000FFFC08B1FFF782FC40F2132308E0012281
:1014D0004020FFF7F5FC08B1FFF778FC4FF40473E8
:1014E000A38335E713F0FC0F1AD00023A383042154
:1014F00000238DF8043094F858008DF8051003236C
:1015000084F82230FFF7A8FC21B1FFF7B7FE08B13D
:10151000FFF75CFC2A4B4FF08042C3F8242545E7D7
:1015200003224FF4D5714820FFF7CAFC08B1FFF73A
:101530004DFC40F21923D3E75D0707D4A27A0321BB
:1015400061F3020213F0FC0FA272CED100232384B8
:10155000A37A03F00703032B0CBF4FF08041002157
:101560000222E920FFF7ACFC08B1FFF72FFC40F2A4
:101570002623B5E7022200214120FFF7A1FC08B194
:10158000FFF724FC4FF40E73AAE713F0FC0FACD165
:10159000D9073FF550AFA37A03F00703032B40D0E0
:1015A00001224FF400715020FFF78AFC08B1FFF7C9
:1015B0000DFC40F2612393E710060020480600204E
:1015C00000300040238C01339BB2B3F5FA6F2384C3
:1015D0003FF639AFA37A03F00703032B0CBF4FF09C
:1015E000804100210222E920FFF76AFC08B1FFF7E1
:1015F000EDFB40F24D2373E713F0FC0F7FF475AF62
:1016000013F00101DED102227A20FFF759FC08B164
:10161000FFF7DCFB40F2532362E713F0FC0F7FF48B
:1016200064AFBD4BE360012200214920A282FFF795
:1016300047FC08B1FFF7CAFB40F26B2350E713F0F9
:10164000FC0F7FF452AF013D4FF41C730136EDB235
:10165000E36120E794F848309B09012B24D0DB0795
:101660002FD494F84F3094F8502094F852009B00F7
:1016700003EB921394F84E20920202F4406201337D
:10168000134494F85120520002F0060202EBD012EB
:1016900094F84D0000F00F00073802449340636057
:1016A0004FF40073238104E794F8513094F85020EC
:1016B000013303EB022394F84F2003EB02439B0218
:1016C000EDE70B46EBE7A38BB3F5267F0FD040F297
:1016D000A222934238D0002B39D1337813F0FC0F7B
:1016E00014D1013D4FF426730136EDB2E36101AB35
:1016F0004FF4007229463046FFF732FC01287FF68E
:1017000027AE9DF8041091B10023A38301238DF827
:101710000430032384F8223000238DF80510636120
:1017200084F8233094F85800FFF796FB3EE6A38A2E
:10173000012B09D901224C20FFF7C2FB08B1FFF7AA
:1017400045FB40F2A223CBE60021A183DEE7002384
:10175000A3830621DAE7A28BB2F53B7F00F0A380DA
:1017600027D840F2C3239A423ED0B2F5317F05D24A
:10177000002A41D00023A3830621A1E040F2D32315
:101780009A4202D0B2F5397FF4D1268BE068B6F5E3
:10179000007F76D3614A00F500700323E0600121E9
:1017A000A2F1100084F82330FFF766FB4FF43B737F
:1017B00096E6B2F5487F4FF0000300F0B180B2F535
:1017C0004C7F00F0C68040F20A318A42D2D1AB424F
:1017D00080F08480F25C002A00F09B80002384F873
:1017E0002330E38A013B1FE0337813F0FC0F1AD05B
:1017F0000023A383042163E0337813F0FC0FF9D1B5
:10180000A37A03F00703012B0DD0A38A012B0AD979
:10181000216901225920FFF753FB08B1FFF7D6FADF
:1018200040F2C3235CE6A38AE382E28AA38A7AB900
:10183000012B40F29480394A4FF6FF532385022151
:101840000323A2F11000FFF717FB4FF4487347E69C
:10185000002222830422012B84F823204FF0FF0270
:101860008CBFFC23FE2384F828202C4A84F82930DE
:1018700002231946A2F11000FFF7FEFA40F2D3232B
:101880002EE6C6F50075ADB2F02D28BFF025012378
:10189000E9B2224A3044FFF7EFFA238B1D44258337
:1018A0004FF439731CE694F83A3003F01F03052B0C
:1018B0004FF0000211D00B2B01D00D2B98D1A28339
:1018C00002238DF80430032384F8223000238DF89E
:1018D000051084F82330636124E7228494F82330D0
:1018E000032B7FF47EAF238C01339BB244F620623E
:1018F0009342238403D90023A3830221E0E7074A0C
:1019000010230121A2F11000FFF7B6FA40F20A33CA
:10191000E6E501335BE700BF5806002048060020DB
:101920002384032384F82330238C01339BB244F6B1
:10193000206293422384DED80C4A10230121A2F1B5
:101940001000FFF799FA4FF44C73C9E5F25C32B915
:101950000133AB42FAD394F82330032BE4D00021B7
:10196000A183ADE70320FFF731FAF1E44806002038
:10197000064B93F82220032A05D093F82200003862
:1019800018BF012070470020704700BF10060020DC
:10199000044890F82230022B00F1040098BF002088
:1019A000704700BF1006002072B6024A1368013368
:1019B000136070476C060020034A1368013B1360F4
:1019C00003B962B6704700BF6C060020FFF7ECBF9A
:1019D000FFF7F2BF10B5034653E8000F0A4643E88D
:1019E000002494F0000FF7D110BD10B5034653E862
:1019F000002F42EA010043E8000494F0000FF6D102
:101A000010BD10B5034653E8000F00EA010243E899
:101A1000002494F0000FF6D110BD10B5034653E832
:101A2000002F02EB010043E8000494F0000FF6D110
:101A300010BD10B5034653E8002FA2EB010043E8A8
:101A4000000494F0000FF6D110BD0121FFF7CDBFC7
:101A50000021FFF7D6BF10B590B1D0E9012301688E
:101A60009B1ADBB20A60013BDBB2FF2B026802D19A
:101A70000020107110BD11684C1C14600B70F2E74F
:101A80000E20F7E738B504460020FFF79FFF2268D5
:101A900063681168994213D9481E106011F8015CFF
:101AA000E368218A01FB0535A36811791B1ADBB2B3
:101AB000994200D213710020FFF78AFF284638BDF3
:101AC0000025F8E738B5054600200C46FFF77EFFF5
:101AD0002A681368591C1160E968641A298AB4FBE2
:101AE000F1F41C70BDE838400020FFF771BF19B158
:101AF000012905D00620704702B1117000207047FF
:101B000012B104301060F9E7072070478069704710
:101B100008B5FFF72DFF0028FBD108BDF0B51B4B22
:101B20001B68834285B005460C4603D0112420462D
:101B300005B0F0BD8669FFF71BFF0028F6D194E8D9
:101B4000070006F10C0787E80700A2882168A06853
:101B5000FFF7E6FA044640B9B36833B9FFF7D8FF98
:101B60000B4B1B78002B18BF0D24B368002BDED065
:101B7000002CDCD04FF48172ADF80420B2690297DA
:101B8000039201A928469847D1E700BF70060020BC
:101B900074060020F0B51B4B1B68834285B00546D8
:101BA0000C4603D01124204605B0F0BD8669FFF72E
:101BB000DFFE0028F6D194E8070006F10C0787E85D
:101BC0000700A2882168A068FFF77AFA044640B9A6
:101BD000B36833B9FFF79CFF0B4B1B78002B18BF82
:101BE0000D24B368002BDED0002CDCD04FF48172C2
:101BF000ADF80420B2690297039201A928469847DC
:101C0000D1E700BF7006002074060020F0B5134F26
:101C10003B68834285B0054603D01124204605B0B9
:101C2000F0BD8669FFF7A4FE0028F6D1FFF726FB7A
:101C3000044600B93860B368002BEFD001228DF85C
:101C40000420221E18BF01228DF8052000220292D6
:101C5000B269039201A928469847DFE77006002081
:101C60002DE9FF410369B3F5007F05460E462AD1F1
:101C7000174F3B684BBBD0F818803860C8F8081085
:101C8000C8F8182013491430FFF77EFA044630B91B
:101C9000AEB9FFF73DFF104B1B7883B10D24002335
:101CA0003B6066B14FF480720293D8F8183003930A
:101CB000ADF80420D8F8083001A9284698472046F6
:101CC00004B0BDE8F0810624F9E71124F7E700BF6E
:101CD00070060020DD1C0000740600202DE9FF4185
:101CE000DFF898800578244AD8F800704378BC69FA
:101CF0001370012D064621D0022D33D0002D36D190
:101D0000FFF746FE036823604FF400736360D8F862
:101D100000309B699B6873B173788DF80450003B69
:101D200018BF01238DF80530A36903930295A368BA
:101D300001A93846984704B0BDE8F081A268002A9E
:101D4000F9D00221003B18BF01238DF8053004F1C2
:101D50000C038DF804100293A369039301A938467C
:101D60009047E8E7A268002AE5D00321EAE70320CC
:101D7000FFF72CF8DFE700BF740600207006002094
:101D8000826810B504462AB1436901680069984722
:101D90000023A36010BD0EB403B5039921B104ABB9
:101DA00001AA019300F076F802B05DF804EB03B0ED
:101DB00070470A2938B504460D4602D10D21FFF7B8
:101DC000F8FFA3682268591CA160D554D4E90132F8
:101DD0009A4204D32046BDE83840FFF7D1BF38BD52
:101DE0002DE9F84F9846DDE90A43154682460F462D
:101DF0000A464FF00109AA420FD2C14538BFC14679
:101E000013F0010B01D16CB900240126B8F1010FC8
:101E10001BD908F1FF386E43F8E709F10109B2FB5D
:101E2000F5F2E8E79B070ED5B8F1000F0CBF30269E
:101E30002026A145E9D2013C31465046FFF7B9FFC3
:101E4000002CF6D1E0E72026F3E7B7FBF6F39D423E
:101E5000E1D9DFF83C80B7FBF6F3504618F80310E1
:101E600006FB1377FFF7A5FF3346AB42B6FBF5F64B
:101E7000F1D2BBF1000F02D00CB1A14501D3BDE8F6
:101E8000F88F20215046013CFFF793FFF4E700BF95
:101E9000184C00002DE9F74F0546174688460029E3
:101EA00000F0428118F8011B49B92B7B002B00F090
:101EB0003B81284603B0BDE8F04FFFF761BF2529FD
:101EC00040F0B780002698F800302D2B424608F1EC
:101ED000010823D0302B24D02B2B25D000242A2BF3
:101EE00002F1010123D13B681A1D1B683A601C44B2
:101EF0000A4613782E2B26D101324FF0000A1046E5
:101F000010F8011BA1F1300CBCF1090F1DD80A23F8
:101F100003FB0A13A3F1300A0246F0E746F001067C
:101F2000D1E746F00206CEE746F00406CBE711F80B
:101F3000013CA3F130000928DBD80A2202FB04345B
:101F4000303C0A46CBE74FF0000A12F8011B01F0C3
:101F5000FB0068289046F8D0782909D86F290CD85A
:101F6000632962D022D8252963D0582900F08880BF
:101F700098F80030002B95D197E770390829F7D8E9
:101F800001A353F821F000BF03210000711F0000DE
:101F9000711F000091200000711F00006F200000E1
:101FA000711F0000711F000081200000642901D012
:101FB0006929DDD13A68D2F80090111D89EAE972E9
:101FC0003960A2EBE9724FF0010B092A35DCD345E9
:101FD00038BFD3462CB1B9F1000F01DB720700D531
:101FE000013CB30702D5BAF1000F03D0F00701D4CA
:101FF0004CBB0024B9F1000F2DDAC9F100092D21E5
:102000002846FFF7D6FE06F00302022A04D1BAF1F1
:10201000000F01D11CBB0024CDE9004653460A2223
:1020200049462846FFF7DCFEA2E73B681A1D1978EF
:102030003A602846FFF7BDFE9AE70A230BF1010B31
:10204000B2FBF3F2C1E7A345D4D220212846013CDC
:10205000FFF7AFFECCE77107D5D52B21D0E7A3451D
:10206000DAD230212846013CFFF7A3FED2E73968D7
:10207000CDE900460A1D3A6053460A220968D0E7B6
:1020800039680A1D3A60CDE9004653461022F5E74B
:102090003B681A1D3A6016F00106D3F8009028D16B
:1020A000B9F1000F03D0484602F0AAFC0646B4423C
:1020B00000D904BB09F1FF3919F8011F00293FF4C9
:1020C00057AF2846FFF775FEF6E728460136FFF7BB
:1020D00070FE19F806100029F7D1A642BFF448AFE8
:1020E000002C3FF445AF20212846013CFFF761FE5C
:1020F000F3E70026EDE720212846013CFFF759FED3
:10210000D5E73B681A1D3A60302128461C68FFF766
:1021100050FE78212846FFF74CFE00220823CDE927
:102120000032214610227CE703B0BDE8F08F00BFEB
:102130002DE9F84FB0F806A04579D2F800B09DF827
:1021400028900AFB05F5043D88460BEB0301A942E4
:1021500003F1040488BFA5EB030BB4FBFAF60746B2
:102160000AFB1644C2F800B04EB9AAEB04055D455F
:1021700028BF5D46BBF1000F04D1BDE8F88F3F6872
:10218000013EF1E7043408EB06003C442A46B9F16D
:10219000000F0DD02146ABEB050B02F008FCDA4531
:1021A0002E443F6855464FF0000428BF5D46E1E7E6
:1021B00001462046EFE7FFF74EBCF8B546790146E9
:1021C000721E0546002393422D6803D30024A642C5
:1021D00002D8F8BD0133F6E70F682846FFF772FC16
:1021E00001343946F3E72DE9F843068ACD1C07464A
:1021F000FFF748FC043E35440446B5FBF6F5F0B164
:102200004FF48073EDB28380C680013D0760814644
:102210004FF00008A84512D23846FFF733FC0646B7
:1022200048B163790133637108F10108C9F800000E
:1022300007608146EEE72046FFF7BFFF34462046A1
:10224000BDE8F88301210430FFF7E7BB10B5012199
:1022500004460430FFF7EDFB10F0FF0F04D12046D9
:10226000BDE81040FFF7A9BF10BD1FB503920022C3
:10227000009203AAFFF75CFF05B05DF804FB1FB5F1
:1022800003920122009203AAFFF752FF05B05DF806
:1022900004FB836800225A60C3E904229A60DA6072
:1022A0001A6070477FB503788DF804304368029355
:1022B00083688DF80C30C36804930369064A8DF86F
:1022C0001430064B01A853F8213052F821109847DA
:1022D00007B05DF804FB00BF7806002088060020E8
:1022E000F0B50546174615F804CB124A42F82C7093
:1022F000114A42F82C30114B0C460FCB85B06E467C
:1023000086E80F002368009323798DF80530637900
:102310008DF80630A3680293002FA389084AADF810
:102320000C3008BF3A4663463146284600F0F6F8BE
:1023300005B0F0BD8806002078060020284C00007B
:10234000A52200001FB503788DF800304368019383
:1023500083688DF80830C368054A0393054B6846C7
:1023600053F8213052F82110984705B05DF804FB6E
:1023700098060020A00600201FB503788DF80030D5
:102380004368019383688DF80830C368054A039356
:10239000054B684653F8213052F82110984705B094
:1023A0005DF804FB98060020A0060020F0B5194B4C
:1023B00090F800C0DFF86CE043F82C20164B16466E
:1023C0000A6943F82C204B7F0EF80C300C46074668
:1023D0000FCC89B06D460FC594E80F0085E80F005B
:1023E0001EF80C30CDF810C04BB1002E0B4A6946D8
:1023F00008BF3246381D00F069FD09B0F0BD002E5F
:10240000074A694608BF324607F10C0000F03AFB64
:10241000F3E700BFA0060020980600204523000037
:1024200079230000A8060020014B1B68184700BF55
:10243000AC06002038B50B4B98420C4601D000206A
:1024400038BD0020FFF7C2FA074B1D7915B90122EC
:102450001C601A710020FFF7BBFA002DEFD011208D
:10246000EEE700BF00200040AC060020034B98427E
:1024700001BF034B00221A601A7170470020004010
:10248000AC0600201F2886BF054A00F01F004FF051
:10249000A042012303FA00F0C2F80805704700BF0C
:1024A000000300501F2886BF054A00F01F004FF0B0
:1024B000A042012303FA00F0C2F80C05704700BFE8
:1024C00000030050114BD3F8183107B5D3B1104BAE
:1024D000104900221A60C87F1B680193FF28019BE6
:1024E00003D08B7F5BB1FFF7DDFF00234B770B72CF
:1024F000D1E90031084803B05DF804EB1847FFF755
:10250000C1FFF2E703B05DF804FB00BF00300040FC
:1025100018310040B4060020BC0600202DE9F74F1A
:102520000679734F4FF0240A0AFB06FA07EB0A0BF1
:102530000C469BF81C10CDE900328046002940F083
:10254000D08005686B492846FFF774FF8146002854
:1025500040F0CA80019A47F80A20009BCBF804306B
:10256000237B2078012B00F2AA80FFF79BFF2378C2
:102570001F2B86BF03F01F035F4A4FF0A04203F5F5
:10258000E073012142F823106178FF2900F09A805E
:102590000846FFF787FF1F298BBF01F01F030B467B
:1025A000554A4FF0A04203F5E073032042F82300A0
:1025B000A378FF2B00F089801F2B8BBF03F01F0235
:1025C0001A464D484FF0A04002F5E0724FF0040C5F
:1025D00040F822C09A46242202FB067282F820307C
:1025E000E078D077FF2816D02379002B70D0FFF742
:1025F00059FFE3781F2B86BF03F01F033E4A4FF0BD
:10260000A04203F5E073032042F82300242303FBD8
:10261000067322799A772378C5F80835A368C5F838
:102620000C15C5F810A5C5F82435637B227B003B4B
:1026300018BF0123022A4ED0032A4FD0012A01D10C
:1026400043F00203C5F85435A379C5F8C0352423F7
:102650007343FB5813B14022C5F804230722C5F881
:1026600000250BB3D8F80030627943F30731002915
:10267000A8BF01F16040C3F30733BCBF03F00F04F0
:102680001E484FEA4212A8BF00F56140D2B2B4BF63
:10269000025580F8002303F01F03012202FA03F31E
:1026A0004909174A42F82130242303FB0676002308
:1026B000737701233377484603B0BDE8F08FFFF707
:1026C000E1FE54E74FF0FF3172E74FF0FF3A82E747
:1026D000FFF7D8FE8DE743F00403B3E743F00603AA
:1026E000B0E74FF00809E6E74FF01109E3E700BF54
:1026F000B4060020C52400000003005014ED00E0E3
:1027000000E100E0F8B505791F4C006824236B4315
:10271000E618E358D3B140F307335B0920331B4F6E
:10272000C0F30432012101FA02F247F82320184BCA
:10273000C0F80833737F4BB14161D0F80431002BEE
:10274000FBD0242303FB054300225A77242303FBF9
:10275000054393F82030FF2B0BD01F2B86BF03F0CF
:102760001F030C4A4FF0A04203F5E073022142F828
:1027700023100026C0F80065FFF778FE242303FB32
:1027800005442677F8BD00BFB406002000E100E054
:1027900052010800000300502DE9F3410679424F31
:1027A000242373431446FA180D46517F80460029AE
:1027B00078D1FB5823B114F0140F04BF01235377D1
:1027C00095E80F004FF0240C0CFB067C0CF10C0E6E
:1027D0008EE80F009CF81F00FF2804D09CF81E30E4
:1027E000C3B1FFF74FFE296821B101F06043B3F197
:1027F000005F06D1AA6882B102F06043B3F1005FC6
:102800000BD0242303FB067600237377102002B03D
:10281000BDE8F081FFF746FEE5E7D8F800306868CC
:10282000C3F84415C3F84805E968C3F83425002205
:10283000C3F83815C3F81821D3F818210192019A6A
:1028400014F0010218BF0122C3F8502514F002024F
:1028500018BF0122C3F8402522075CBF01221A617C
:1028600024227243BA5892B9D3F81821002AFBD017
:10287000242303FB0676F07FFF2803D0B47F1CB12E
:10288000FFF710FE0020C2E7FFF7FCFDFAE714F0A7
:1028900004004FF0400202D0C3F80823F2E7C3F867
:1028A0000423B4E71120B2E7B4060020002343500C
:1028B00082B043580193019B02B070470A4610B59D
:1028C0004FF48E71FFF7F2FF136A9168C95C136AC7
:1028D00001331362C0F81C1510BD8B690A4610B590
:1028E0004FF4847123B9FFF7E1FFD0F8183510BD1C
:1028F000FFF7DCFF536AD168D0F81805C854536A53
:1029000001335362F3E700001FB501238DF8003057
:10291000044BCDE90110D3E900126846904705B099
:102920005DF804FBD806002030B54C48D0F80433DD
:1029300013F4007F85B005464DD0D0F82431002B2C
:1029400049D04FF49271FFF7B1FF4FF40173C0F813
:102950000833434B93F829200AB9012242603F49CA
:1029600002228DF80020D1F88024C1F8802403923F
:102970009A690292DA6801920022C3E90622684647
:10298000D3E9001290473548D0F81C315BB1344987
:102990004A690B6A9A420A464AD991F82830002BB4
:1029A00046D1FFF78BFF2D48D0F844318BB14FF45F
:1029B000A271FFF77BFF2A4B93F829200AB101226D
:1029C00002609A692AB10022586AD9689A61FFF7B1
:1029D0009BFF05B030BDD5F804335B07D3D5D5F8E0
:1029E0000831002BCFD01E4C1C482146FFF775FF45
:1029F000636AA2699A422346C5D1E269E1684AB195
:102A00002369E3600023606AA261E3616362FFF708
:102A10007BFFB8E794F829200AB901226A600F4ABF
:102A20004FF40170C2F808030022586A9A61EEE779
:102A30000A484FF48E71FFF739FF5369002BB2D06B
:102A400051690291002391688DF800300191536122
:102A50006846D2E900139847A5E700BF0020004070
:102A6000D80600201F2886BF00F01F00044B4FF03F
:102A7000A04300F5E070022243F82020704700BF19
:102A8000000300502DE9F843634B057991462C2251
:102A900002FB0532064692F82A200C469846002A88
:102AA00040F0B6805D490068FFF7C4FC0746002887
:102AB00040F0B08021684A1C10D01F2987BF584AB7
:102AC00001F01F030B464FF0A0420120984003F590
:102AD000E073C2F80805032042F823006068431C35
:102AE0000DD01F288BBF00F01F0303464C4A4FF048
:102AF000A04203F5E0734FF0000C42F823C03368A6
:102B0000A269C3F8242594F814C0627DBCF1010FBA
:102B10004CEA0202C3F86C25C3F81405C3F80C157F
:102B20002BD1A168481C0DD01F298BBF01F01F02BB
:102B30000A463B484FF0A04002F5E0724FF0000C0F
:102B400040F822C0E068421C13D01F2887BF344AD7
:102B500000F01F0C84464FF0A0424FF0010E0EFA19
:102B60000CFE0CF5E07CC2F808E54FF0030E42F8CD
:102B70002CE0C3F80805C3F810152C236B4308EBB1
:102B80000302C2F80490226948F80320B9F1000F4B
:102B90002BD03068247F4FF48E71FFF787FE3068AA
:102BA0004FF4A271FFF782FE32681E4BC2F8043365
:102BB000110B42F30732002AA8BF02F160404FEA2E
:102BC0004413BABF184801F00F0400F56140DBB2AE
:102BD000B4BF035580F8003301F01F01012303FA4D
:102BE00001F15209114B43F8221033680422C3F853
:102BF00000252C2303FB05830022C3E9062283F86A
:102C000029205A61012283F82A203846BDE8F8833A
:102C10000827FAE71127F8E7D8060020292900003D
:102C2000000300508000020014ED00E000E100E02D
:102C30002DE9F04103680479244D0022C3F80025F2
:102C40002C2202FB0452014652686AB1204AC3F8A2
:102C5000082343F30732C3F3043652090120B0407E
:102C600020321C4E46F82200D3F80C05D3F8148508
:102C7000D3F80865D3F810754FF0FF329042C3F8CF
:102C80001425C3F80C25C3F80825C3F8102501D076
:102C9000FFF7E8FEB8F1FF3F02D04046FFF7E2FE43
:102CA0007A1C02D03846FFF7DDFE731C02D0304696
:102CB000FFF7D8FE0868FFF7D9FB2C2303FB045469
:102CC000002384F82A306360BDE8F081D806002034
:102CD0008402020000E100E02DE9F047204F90F867
:102CE00004904FF02C0808FB097405466669002E15
:102CF00034D162610068A16026624FF48E7184F85D
:102D00002860FFF7D3FD2868012383602146FFF781
:102D1000D5FD6368A0468BB92868D4F814A0236A4F
:102D20009A4511D82A68D2F81C31002BFBD0012318
:102D3000D3602C2303FB097300225A613046BDE89F
:102D4000F08794F828303BB9D0F81C31002BF8D02C
:102D50004146FFF7B3FDE2E70F26EAE71126EDE76C
:102D6000D80600200023435082B043580193019BB2
:102D700002B070471FB501238DF80030044BCDE938
:102D80000110D3E900126846904705B05DF804FBD6
:102D9000040700201F2886BF00F01F00044B4FF0DF
:102DA000A04300F5E070022243F82020704700BFE6
:102DB000000300507FB5434AD2F82461002E60D052
:102DC00010464FF49271FFF7CDFF02238DF80030CB
:102DD000D2F88034C2F880340393D2F83C350293A1
:102DE000394BDA6801920022C3E906226846D3E92A
:102DF000001290473348D0F8443173B14FF4A271B8
:102E0000FFF7B0FF304B9A693AB10022C3E90622BE
:102E1000D968D0F83C05FFF7ADFF2A48D0F820313B
:102E2000ABB14FF49071FFF79DFF0123C360264BB8
:102E30005A6962B1D0F84C150291002299688DF858
:102E4000002001915A616846D3E9001290471D485D
:102E5000D0F858319BB14FF4AC71FFF783FF1A4B98
:102E60005A6962B1D0F84C150291002299688DF828
:102E7000002001915A616846D3E90012904704B0DE
:102E800070BDD2F81031002BB4D04FF488711046C9
:102E9000FFF768FF0C4BD2F83C0599698842A9D12D
:102EA000DC69D96864B1D2F8005225F02005C2F877
:102EB00000521A699C61DA60DE61FFF75BFF99E7F7
:102EC0009C61FAE700200040040700202DE9F84348
:102ED0006A4B06799146242202FB0632044692F898
:102EE00020200D469846002A40F0C38064490068BF
:102EF000FFF7A0FA0746002840F0BD802868421C72
:102F000010D01F2887BF5F4A00F01F0303464FF011
:102F1000A0420121994003F5E073C2F8081503218E
:102F200042F8231069684B1C0DD01F298BBF01F09C
:102F30001F030B46534A4FF0A04203F5E0734FF0D6
:102F4000000C42F823C02368AA69C3F8242595F829
:102F500014C06A7DBCF1010F4CEA0202C3F86C2573
:102F6000C3F80C05C3F814152BD1A968481C0DD063
:102F70001F298BBF01F01F020A4642484FF0A040B4
:102F800002F5E0724FF0000C40F822C0E868421CE5
:102F900013D01F2887BF3B4A00F01F0C84464FF018
:102FA000A0424FF0010E0EFA0CFE0CF5E07CC2F8C8
:102FB00008E54FF0030E42F82CE0C3F80805C3F80B
:102FC00010152423734308EB0302C2F804902A6906
:102FD00048F80320B9F1000F3AD020682A7F4FF457
:102FE0008871FFF7BFFE20684FF49071FFF7BAFEBB
:102FF00020684FF49271FFF7B5FE20684FF4A2717C
:10300000FFF7B0FE20684FF4AC71FFF7ABFE23680A
:103010001D49C3F80413190B43F30733002BAEBF4C
:1030200003F1604001F00F0518484FEA4212A8BFB3
:1030300000F56140D2B2B4BF425580F8002301F0E0
:103040001F01012202FA01F15B09114A42F8231023
:1030500023680822C3F80025242303FB06830022EB
:10306000C3E906225A61012283F820203846BDE8D0
:10307000F8830827FAE71127F8E700BF04070020C4
:10308000B52D0000000300501003420014ED00E0D5
:1030900000E100E02DE9F0412E4E0579242303FBE9
:1030A000056304465B6800686BB12B4BC0F80833BE
:1030B00040F30733C0F304315B0901228A40203317
:1030C000264941F82320D0F80032012223F02003C2
:1030D000C0F800324FF4AC714260FFF743FE236842
:1030E000DA60D3F85821002AFBD00022C3F800256B
:1030F000D3F80C05D3F81485D3F80815D3F8107558
:103100004FF0FF329042C3F80C25C3F81425C3F8E2
:103110000825C3F8102501D0FFF73CFEB8F1FF3FAA
:1031200002D04046FFF736FE7A1C02D03846FFF741
:1031300031FE4B1C02D00846FFF72CFE2068FFF73B
:1031400095F9242303FB0565002385F820306B6087
:10315000BDE8F081040700201003420000E100E018
:1031600001F06043B3F1005F2DE9F041064638D12C
:103170001E4B0779242505FB073598466C69002C02
:1031800031D16A610068A9604FF49071FFF7EAFDE0
:103190004FF4AC713068FFF7E5FD33686A69A968E0
:1031A000C3F84415C3F8482501229A606A68AAB991
:1031B000D3F82021D3F858411AB9002CF8D00F24A5
:1031C00007E0002CFBD10122DA60D3F85821002A55
:1031D000FBD0242303FB078700237B612046BDE847
:1031E000F0811024FAE71124F8E700BF040700205B
:1031F0002DE9FF410120FDF7CAFD00210846FDF73A
:1032000081FA08B1FDF7E2FDFDF7B6F94A4D4B4BE7
:103210004B49ED1AED082D0445F003042046FDF757
:1032200023FC4848012100F0F3F920464649FDF708
:103230001BFC002000F0CAF868B1002000F0C6F8BE
:1032400048B1002000F0C2F828B140492046FDF7FF
:103250000BFC20BFFDE73E4B3E485F69B847426824
:103260003C484FF48016B6FBF2F6B8473A4902687C
:10327000B2FBF6F22046FDF7FBFB38492046FDF78E
:10328000F3FB37493748012200F0D8FF08B136492F
:10329000DCE736492046FDF7E7FB3549354801F0C4
:1032A000E9F958B9344EDFF8CC8006F10907324904
:1032B000404601F012FA18B13049C7E73049C5E776
:1032C000737A45F0050073B92549FDF7CDFB2D490B
:1032D0002046FDF7C9FB2C492C48332200F0D4FFCF
:1032E000A8B12B49B2E7337ADB0609D52949019009
:1032F0003A46FDF7BDFB737A0198002BD7D1E3E77F
:103300003268254901903B46FDF7BBFBF3E72349B3
:103310001E4803AB102201F098F838B1204920462E
:10332000FDF7A2FB194801F098F992E7039A1D49AD
:103330002046FDF79DFBF5E7804A0000604A00004B
:103340004C4C00001C000020634C0000804C00002E
:10335000004C0000C44D00009C4C0000AC4C000030
:10336000304B000094090020BF4C0000CD4C000001
:10337000E34C0000280700207C090020FF4C0000DF
:10338000E54C0000164D0000344D000054070020AD
:10339000564D00003F4D00004D4D0000814D000096
:1033A000924D0000A24D00000B78032B09D8054B6D
:1033B000087A1A680C2300FB03234A781A72002249
:1033C0009A727047E00B002020BF704738B5194B48
:1033D0001B78834202462BD9174C00EB400321682F
:1033E0009D0001EB8303485910B3597AC90702D4F1
:1033F000587AC0B238BD596809B9104959600121DD
:10340000997203680E491B68984720B123682B44C2
:10341000EEE75B68984723682B449A7A002AF8D134
:103420001A7A002AF2D15A7A02F0FE025A72EDE7B5
:103430000320DFE7E40B0020E00B0020C93300008D
:10344000A9330000074B1B78834281BF064B1B68E2
:1034500000EB400003EB800086BF407AC0B2012041
:10346000704700BFE40B0020E00B0020F0B51646CB
:103470001C4A1278824285B02FD9002B2DD01A4DCC
:1034800000EB40002A68870002EB8000D45934B377
:10349000427AD20723D4CDE90163012303918372D9
:1034A000236820465B69984703689E4202D3012047
:1034B00005B0F0BD236801A99B6820469847002805
:1034C000F5D12B683B449A7A22B9187A003818BF94
:1034D0000120EDE75B689847F3E70420E8E7032065
:1034E000E6E700BFE40B0020E00B0020F0B5164635
:1034F0001F4A1278824285B033D9002B31D01D4D3E
:1035000000EB40002A68870002EB8000D459002CB1
:1035100029D0427AD20726D4427A520725D4CDE95F
:103520000163012303918372236820465B699847F6
:1035300003689E4202D3012005B0F0BD236801A9B3
:10354000DB68204698470028F5D12B683B449A7ADF
:1035500022B9187A003818BF0120EDE75B68984758
:10356000F3E70420E8E70320E6E70220E4E700BFF2
:10357000E40B0020E00B002073B5234B1B78834243
:103580000D46144639D901291CD0022928D001231F
:10359000002934D100EB40001C4E8DF80730840028
:1035A0003368185903680DF107021B690021984719
:1035B00008B1112803D19DF80730002BF0D128461F
:1035C00002B070BD114B00EB40001B6853F82000A7
:1035D000B8B103685B699847036823600025EEE78C
:1035E0000A4B00EB40001B6853F8200048B1036809
:1035F0005B69984743682380F0E70425DFE71D46B1
:10360000DDE70325DBE700BFE40B0020E00B002033
:10361000024B1860024B1970704700BFE00B00208E
:10362000E40B002042884378007843EA022340EA12
:10363000032070470B0A017043700B0C090E837056
:10364000C1707047024400F8011B9042FBD17047E3
:1036500043690239023B8B4283BF4389806A01FB85
:10366000030000207047026810B552B111460B46A6
:1036700011F8014B202C0CD93A2CF8D1511C8B425B
:1036800002D04FF0FF3005E01278302AF9D1013333
:103690000360002010BD38B50D46044618B900235C
:1036A00009202B6038BD0368002BF8D01A78002A57
:1036B000F5D0D98882889142F1D15878FFF7C2FEBF
:1036C00010F00100EBD12368EBE701380A4411F850
:1036D000013B00F8013F9142F9D17047CA7E8B7ED1
:1036E000032843EA022301BF487D0A7D42EA002203
:1036F00043EA024318467047C2F307238A76CB7623
:103700000378032B01BF120C0A75120A4A75704721
:10371000F8B5C4690023651E18462E2615F8012F3A
:10372000202A00F101000AD0052A08BFE522092855
:1037300002BFCF1801337E72CF1801337A720B2883
:10374000ECD10B4400225A72E37A0B7204F11C0094
:10375000FFF768FF086004F11600FFF763FFC880F9
:10376000000C8880F8BD2DE9F041C66A00F13008F0
:1037700004460123407832464146FFF7B7FE05462E
:10378000A8B9236AA269E070F31A934202D2A7781B
:10379000012F02D82846BDE8F081A36960781E4455
:1037A000324601234146FFF7A1FE013FF0E7012524
:1037B000F0E7C3780BB1FFF7D6BF1846704738B5AE
:1037C000C36A8B4205460C4610D0FFF7F2FF60B982
:1037D00022466878012305F13001FFF747FE0028F3
:1037E0001CBF4FF0FF340120EC6238BD0020FCE725
:1037F000002310B5C3704FF0FF33C3620446FFF7D8
:10380000DEFF014630BB94F82F2294F82E3243EAB3
:1038100002234AF6552293421ED194F83030E92B08
:1038200005D0236B0E4A03F0FF13934216D104F127
:103830006600FFF7F7FE0B4B20F07F40984207D061
:1038400004F18200FFF7EEFE074B984218BF0221F9
:10385000084610BD0421FBE70321F9E70221F7E741
:10386000EB00900046415400464154332DE9F043AB
:10387000002385B00B600F461546FFF7F4FE061EC9
:10388000C0F24081A24B53F82640002C00F03C814E
:103890003C60237805F0FE056BB16078FFF7D2FD40
:1038A000C70708D41DB110F0040500D00A2528462A
:1038B00005B0BDE8F0830023F0B223706070FFF71D
:1038C00085FDC10700F122810DB14207EED4002130
:1038D0002046FFF78DFF022840F0F3806E4604F586
:1038E000FB7104F23627354611F8040C10B1084676
:1038F000FFF798FE10318F4245F8040BF4D10025F4
:1039000056F8048BB8F1000F00F0D28041462046F3
:10391000FFF76EFF012800F2CC8094F83C2094F869
:103920003B3043EA0223B3F5007F40F0CE8094F8A9
:10393000470094F8465055EA002504D104F154009C
:10394000FFF770FE054694F84060A561731E012BD9
:10395000A67000F2BA8094F83D90A4F80A904B4605
:10396000002B00F0B28009F1FF3313EA090F40F099
:10397000AC8094F8423094F8417047EA03273B0743
:1039800039B2278140F0A18094F8440094F8433084
:1039900053EA002300F09E80184694F83F2094F8E4
:1039A0003E3053EA022200F0908005FB06FE02EB57
:1039B000171CF4446045C0F08880A0EB0C034B4515
:1039C000B3FBF9F6C0F081804FF6F5739E4200F22A
:1039D000868040F6F5794E458CBF4FF002094FF0D6
:1039E000010902EB080302360CEB0802B9F1030FE0
:1039F0006661C4F81C802362A26273D194F85B20D4
:103A000094F85A3043EA0223194309B200295CD1E1
:103A100004F15C00FFF706FEB600606206F2FF16D6
:103A2000B5EB562F51D34FF0FF33C4E90333B9F14F
:103A3000030F4FF08003237130D194F8612094F884
:103A4000603043EA0223012B28D108F1010120460E
:103A5000FFF7B5FE10BB94F82F2294F82E32207198
:103A600043EA02234AF65522934217D104F130006B
:103A7000FFF7D8FD274B984210D104F50570FFF7EA
:103A8000D1FD254B984209D104F50670FFF7CAFD18
:103A9000206104F50770FFF7C5FDE0601F4A84F858
:103AA0000090138801339BB21380E3800025FEE66B
:103AB00003200135042D7FF423AF042805D101250F
:103AC000F5E60428FBD0012801D90D25EFE64FF0DB
:103AD000000822E704F15000FFF7A4FD5DE74FF076
:103AE00003097EE7002FF0D07344B9F1020F63623F
:103AF0004FEA46031BBF9B1906F001061E4606EB64
:103B000053068BE70B25D2E60C25D0E60325CEE63F
:103B1000E80B00205252614172724161EC0B0020AF
:103B200001292DE9F04706460C46174673D943692B
:103B30008B4270D90378022B3FD0032B50D0012B3E
:103B400069D101EB5108016A01EB5821FFF737FEFB
:103B5000054638BB06F1300908F1010AC8F3080828
:103B600014F001041FBF19F8083003F00F023B01E5
:103B700003F0F00314BF1343FBB209F80830316AB5
:103B80000123F37001EB5A213046FFF718FE05467A
:103B900040B9CAF3080A44B1C7F3071709F80A7015
:103BA0000123F3702846BDE8F08719F80A30C7F3FF
:103BB000032723F00F031F43F0E7016A01EB1421F1
:103BC000FFF7FDFD05460028ECD1640006F1300347
:103BD00004F4FF7418191F55C7F307274770DFE770
:103BE000016A01EBD411FFF7EAFD05460028D9D19F
:103BF000A40006F1300304F4FE741C442046FFF7D1
:103C000011FD27F0704700F0704047EA00012046A0
:103C1000FFF710FDC4E70225C4E70129F8B5054602
:103C20000C4652D9436999424FD20378022B29D0CE
:103C3000032B38D0012B48D101EB5106016A01EB6F
:103C40005621FFF7BCFD10B14FF0FF30F8BD771CD7
:103C5000296AC6F308062E4401EB5721284696F838
:103C60003060FFF7ACFD0028EED1C7F308073D44F4
:103C7000E30795F8300046EA00204CBF0009C0F386
:103C80000B00E3E7016A01EB1421FFF798FD002820
:103C9000DAD16400303504F4FF742B19285D5B78A9
:103CA00040EA0320D2E7016A01EBD411FFF787FD58
:103CB0000028C9D1A40005F1300004F4FE742044AA
:103CC000FFF7B0FC20F07040C0E70120BEE72DE90F
:103CD000F041056880460F4671B9EE68EEB16B6938
:103CE000B34298BF012634466B690134A34217D80A
:103CF000012E14D8002406E02846FFF78EFF012885
:103D0000044603D801242046BDE8F081431C30D08E
:103D10006B698342F7D83E46E5E70126E3E70224D4
:103D2000D8F800002146FFF778FF30B10128E9D02C
:103D300001301ED0B442D7D1DCE74FF0FF3221462C
:103D40002846FFF7EDFE90B957B9D5E90432023A9B
:103D50009342EC6010D32B7943F001032B71D2E72F
:103D6000224639462846FFF7DBFE0028EDD0012821
:103D7000C8D14FF0FF34C6E7013B2B61EBE773B5C9
:103D80000C46012C0568064611462CD96B69A342E6
:103D900029D92AB14FF0FF322846FFF7C1FE40B9BA
:103DA000214630680194FFF738FF0199044610B9A5
:103DB000002002B070BD012815D0431C15D0002290
:103DC0002846FFF7ADFE0028F3D1D5E90432911E55
:103DD0008B4205D201332B612B7943F001032B7108
:103DE000A242DDD8E4E70220E3E70120E1E7F8B5ED
:103DF0000446FFF7DEFC0546002842D12378032B5A
:103E000037D12779012F34D104F1300601464FF420
:103E100000723046FFF716FC552384F82E32AA2391
:103E200084F82F3252234122722184F8303084F8F2
:103E30003130612384F8323084F8332084F816223C
:103E400084F8173284F8141284F8151204F50670F9
:103E50002169FFF7EFFBE16804F50770FFF7EAFB64
:103E6000E26960780132E2623B463146FFF73EFB91
:103E70002571002260781146FFF77EFB003818BFDD
:103E80000120F8BD826838B5002305680361044647
:103E90009AB92B78022B01D96B6A6BB92B890BB9B4
:103EA000022038BD6B6AA361A3696261002BF7D061
:103EB0003035E5610020F4E71A466B8963B9114695
:103EC0002068FFF7AAFE431C02460BD00128E7D961
:103ED0006B699842F3D3E3E711462846FFF7B8FB36
:103EE000A061E1E70120DCE703692DE9F04703F178
:103EF0002008836905468A4693B1B8F5001F0FD2A2
:103F0000C8F308090468B9F1000F4DD141690133C4
:103F1000836139B92389B3EB581F45D80023AB61BE
:103F200004200BE06789013F17EA58273CD120465F
:103F3000FFF773FE0128064602D80220BDE8F0878D
:103F4000421C01D10120F9E76369834226D8BAF106
:103F5000000FE3D069692846FFF7B9FE064600283E
:103F600035D00128E9D0431CECD02046FFF721FCD6
:103F700001460028E6D14FF4007204F13000FFF74B
:103F800061FB31462046FFF763FB4FF0010AE06218
:103F900063899F420FD3E36ADF1BE7626E6131469C
:103FA0002046FFF755FBA86130344C44C5F810801B
:103FB000EC610020C2E784F803A02046FFF7D3FBA2
:103FC0000028BFD1E36A01330137E362E0E707204D
:103FD000B4E700002DE9F041066880460C4611F870
:103FE000013B2F2BFAD05C2BF8D00023C8F8083007
:103FF00023781F2B55D908F120050B2228462021B4
:10400000FFF720FB002210460827235C202B00F13D
:10401000010108D92F2B01D05C2B4CD1605C2F28DB
:1040200047D05C2845D00C44002A5DD098F8202069
:10403000D8F80070E52A04BF052288F82020212B3B
:1040400034BF0423002388F82B304046FFF71AFFC3
:1040500000286DD1D8F818103846FFF7B0FB0028BB
:1040600066D1D8F81C201378002B6CD0D37A03F0DB
:104070003F0388F80630D37A13F008000CD102F120
:104080000B0C294612F8013B11F801EB9445A3EB08
:104090000E034BD0002BF5D000214046FFF724FF44
:1040A000D6E7802388F82B304046BDE8F041FFF783
:1040B000E9BE0131B2E72E2B5CD0974214D903F14F
:1040C0007F0C5FFA8CFCBCF11E0F0FD903F1200CA2
:1040D0005FFA8CFCBCF11C0F08D9DFF8A4C01CF8F7
:1040E000010BD0B18342FAD106202AE014F801C0B6
:1040F000ACF140013E2900F1020003D98CF08001AF
:104100007C29F1D8791E8A42EED2511CAB5405F8B5
:1041100001C002320146084677E7A3F16100192881
:104120009CBF203BDBB2AB540132F4E7002BB3D190
:1041300098F82B3048B1042803D113F0040F08BFBE
:104140000520BDE8F0810420F2E75A07F9D498F879
:104150000630DB060CD5D8F810303078C3F30803EE
:1041600006F130011944FFF7B9FAC8F8080044E72E
:104170000520E6E70B2FB7D008220B27CBE700BFBF
:10418000E04D000038B5056804460420A16909B96E
:10419000A8B11CE02846FFF712FBC0B9E3691A7802
:1041A000C2B1DB7AE52A03F03F03A37109D02E2ABE
:1041B00007D00F2B05D023F02003082B01D00020BF
:1041C00038BD00212046FFF78FFE0028DED00023F7
:1041D000A361F5E70420FAE770B506680546FFF726
:1041E00051FE044628BBA9693046FFF7E8FA0446A9
:1041F000F8B9EB691B78E52B14D1A9693046FFF7B4
:10420000DEFA044660B901462022E869FFF71AFA8F
:10421000E8690B2205F12001FFF757FA0123F3703B
:10422000204670BD002BE8D001212846FFF75CFE38
:10423000D7E7042C08BF0724F2E700001FB5CDE93B
:10424000001003A814460391FFF70DFA031E15DBB7
:104250000C4951F823200AB100201070019808B1D0
:104260000022027041F8230030B1012C08D1002255
:1042700001A96846FFF7FAFA04B010BD0B20FBE76E
:104280000020F9E7E80B00202DE9F0438FB0174636
:1042900001910446002800F0D68002F03F052A462E
:1042A00002A901A8FFF7E2FA0646002852D1029BB4
:1042B0000199039303A8FFF78DFE20B99DF93730CC
:1042C000002BB8BF062017F01C0F00F09C800028C0
:1042D00047D004283ED103A8FFF77EFF002839D13C
:1042E00045F008050A9BDDF80890002721214822A7
:1042F0005A749F73DF7319740A9B5A769F75DF7522
:1043000019760A9B2022DA720A9999F80000FFF7C1
:10431000E5F93A4680464846FFF7EEF90A9B1F77D3
:104320005F779F77DF77029B0122DA70B8F1000F89
:1043300020D03A46414603A8D3F82C90FFF71FFD42
:1043400040B902984946FFF73AFA029A08F1FF335A
:10435000D36078B100232360064630460FB0BDE835
:10436000F0839DF8123013F0110F56D1780764D402
:104370003907B7D4029F2907FB6A0A992362616251
:10438000387848BF45F04005FFF7A8F9A06001F173
:104390001C00FFF747F9FB882760002104F128077C
:1043A000E0604FF40072A38025746174E161616183
:1043B0003846FFF747F9AA06CFD5D4F80C80B8F1F4
:1043C000000FCAD0029BA1685D89C4F814806D02F9
:1043D000454524D30020A1610028BBD1C8F30803C0
:1043E000002BBAD0029D2846FFF732F948B300EB04
:1043F0005822E261687801233946FFF737F8002830
:10440000ABD00120A6E70028A4D19DF81230DA062F
:1044100015D4BF07AED5D807ACD507209AE72068DA
:10442000FFF7FBFB01280146A8EB050803D9431C55
:10443000CED10120CFE70220CDE708208AE7042073
:1044400088E7022086E7092687E72DE9F04F99469D
:1044500085B000238846C9F8003003A904461646F3
:10446000FFF719F9054620BB657C15BB237C9A072D
:1044700040F1AA806369F34228BFDE4304F1280AB1
:104480009EB16369C3F30802002A40F08B80039A4F
:104490005789013F17EA53271ED173B9A06870B935
:1044A00001462046FFF713FC48B9237C43F0400344
:1044B0002374284605B0BDE8F08FA169F1E7012813
:1044C00002D102256574F4E7431C01D10125F9E707
:1044D000A368A06103B9A06094F91030002B0CDA36
:1044E0000398E269407801235146FEF7FFFF002858
:1044F000ECD1237C03F07F032374DDF80CB0A169B9
:104500005846FFF7A5F80028DBD0B6F5007F07EB8B
:10451000000235D3BBF80A1007EB562088424FEA59
:1045200056239BF8010088BFCB1B4146CDE90023F1
:10453000FEF7DCFF0028C9D1E169009A019B891AC6
:1045400099420CD24FF4007208EB4121504600937F
:10455000FFF7BBF8227C009B02F07F0222745F020F
:104560006369E2683B4463619A422CBFE260E360A6
:10457000D9F800303B44B844C9F80030F61B7FE757
:10458000E36993420DD0E1686369994209D99BF8C8
:104590000100009201235146FEF768FF009A0028AF
:1045A00094D1E2616069C0F30800C0F50077B742BA
:1045B00028BF37463A4641465044FFF786F8237CE9
:1045C00063F07F032374CBE7072572E773B501A976
:1045D0000546FFF760F80446002839D12B7C13F01C
:1045E000400435D01B060CD50198EA6940780123B8
:1045F00005F12801FEF77AFF68BB2B7C03F07F03EF
:104600002B74296A0198FFF7DAF8044600BB6E6A3A
:10461000F37A43F02003F372AA6828683146FFF763
:104620006BF8E96806F11C00FFF704F821233376E4
:104630000198B475482373760123F475B474F47447
:10464000C370FFF7D4FB2B7C23F0400304462B748C
:10465000204602B070BD0124FAE713B50446FFF707
:10466000B5FF28B901A92046FFF715F800B9206069
:1046700002B010BD1FB50446019148B3002203A942
:1046800001A8FFF7F3F870B9039B01992360204656
:10469000FFF7A0FCF0B994F92B30002B0CDBA379C9
:1046A000DB0603D40520002323600FE0039BE169B0
:1046B0001878FFF713F8A060039BDB88A3802046DF
:1046C000FFF7E0FB0428EDD00028ECD104B010BDCA
:1046D0000920FBE70428E5D0E5E737B50D4601A939
:1046E0000446FEF7D8FF18B920461DB9FFF7CAFBEC
:1046F00003B030BDFFF746FD10F0FB03F8D16B723D
:10470000A3691BB129462046FFF702F80021204685
:10471000FFF7EAFB042808BF0020E9E7054B1B6808
:10472000082B01BF044B1868B0FA80F0400918BF8D
:1047300000207047300100103401001008B54FF020
:1047400080430022C3F80C21C3F81021C3F8382598
:104750004FF0805203F54043D2F80414C3F82015FB
:10476000D2F80814C3F82415D2F80C14C3F828158D
:10477000D2F81014C3F82C15D2F81414C3F830155D
:10478000D2F81814C3F83415D2F81C14C3F8401525
:10479000D2F82014C3F84415D2F82414C3F84815ED
:1047A000D2F82814C3F84C15D2F82C14C3F85015BD
:1047B000D2F83014C3F85415D2F83414C3F8601585
:1047C000D2F83814C3F86415D2F83C14C3F868154D
:1047D000D2F84014C3F86C15D2F84424C3F87025FD
:1047E000FFF79CFF10B1384B384A1A60FFF796FF6D
:1047F00018B1374BFB22C3F81825FFF78FFF48B1DC
:104800003449354B0A681B6822F00F0203F00F038E
:1048100013430B60FFF782FF18B1304B4FF4007267
:104820001A604FF08043D3F80024D20744BF6FF0E2
:104830000102C3F800242A4AD2F8883043F47003F6
:10484000C2F88830BFF34F8FBFF36F8F4FF0102344
:10485000D3F80022002A03DBD3F80432002B2FDA2E
:10486000204B0122C3F80425D3F80024002AFBD0F2
:104870004FF010221221C2F80012D3F80024002AAF
:10488000FBD04FF010231222C3F80422154B1A4616
:10489000D3F800140029FBD00021C3F80415D2F886
:1048A0000034002BFBD0BFF34F8F0D490E4BCA686D
:1048B00002F4E0621343CB60BFF34F8F00BFFDE70C
:1048C0000A4B0B4A1A6008BD8C5600404881030011
:1048D00000F00040E40E00405802001040960240F4
:1048E00000ED00E000E001400400FA05280000208F
:1048F0000090D0037F2805D8034B185C034B5B5C0A
:104900001840704700207047FC4D00007C4E0000AE
:10491000A0F16103192B98BF20387047A0F1410323
:10492000192B98BF203070477F2805D8034B185C9F
:10493000034B5B5C1840704700207047FC4D000043
:104940007C4E0000A0F16103192B98BF20387047FE
:10495000A0F14103192B98BF203070477F299ABFDF
:10496000017001206FF02E0070475AB10A787F2A3B
:104970000AD800B10260002119605960501A18BFAE
:1049800001207047002070476FF02E007047000034
:1049900008B5034B5B689B681B68984708BD00BF60
:1049A0002C00002008B50921FFF7F2FF08BD84465E
:1049B00040EA010313F0030F18D18446202A0BD3D9
:1049C0002DE9F007B1E8F807A0E8F807A2F1200206
:1049D000202AF7D2BDE8F007042A07D351F8043B98
:1049E00040F8043BA2F10402042AF7D2002A05D0C1
:1049F00011F8013B00F8013B013AF9D160467047DC
:104A000000F1010110F0030F11D010F8012B002A62
:104A100023D010F0030F0AD010F8012B002A1CD06D
:104A200010F0030F03D010F8012B002A15D02DE948
:104A300070004FF001324FF0803350F8044BA4EB7C
:104A4000020525EA04051D4000D1F6E7A0F10400A7
:104A500070BC10F8012B002AFBD1A0EB01007047BD
:104A6000384C0000000000003C4C0000000000003A
:104A7000414C000000000000464C00000000000017
:084A8000FA4A000000000303E4
:104A8800CC4A000000000000D84A000014000020B2
:104A9800840000204C010020540100208C000020DC
:044AA80018000000F2
:104AAC00FFFFFFFFFFFFFFFFFFFFFFFFFFFFFFFF0A
:104ABC0000000000000000000000D601060100000C
:104ACC0095040000490500009304000075617274A0
:104ADC005F6C6F675F6261636B656E6400426163FC
:104AEC006B656E647320666C7573686564006170C9
:104AFC0070000000780500207F000000F805002001
:104B0C001B5B306D001B5B313B33316D0025734CEF
:104B1C006F67732064726F70706564202825642938
:104B2C0025730D0A003C25733E2025733A20002086
:104B3C002530327800202020007C002563001B5B90
:104B4C00313B33306D001B5B313B33326D001B5BF3
:104B5C00313B33336D001B5B313B33346D001B5BDE
:104B6C00313B33356D001B5B313B33366D001B5BCA
:104B7C00313B33376D007761726E696E6700696E19
:104B8C00666F006465627567000000000C4B0000E6
:104B9C004A4B0000114B0000524B00005A4B0000D6
:104BAC00624B00006A4B0000724B00007A4B000015
:104BBC0000000000DA4B0000824B00008A4B000022
:104BCC008F4B00000D0E0F10466174616C206572E6
:104BDC00726F720053797374656D207265736574AE
:104BEC000000000000000000003000400000000049
:104BFC0001000000611C00000D1C0000951B000052
:104C0C001D1B0000EF1A00000D1B00003031323369
:104C1C00343536373839414243444546FFFFFFFFB0
:104C2C000006FF000000004000000000505253003E
:104C3C005350494D00554152540055415254450072
:104C4C004641544653206578616D706C65207374D1
:104C5C0061727465642E00496E697469616C697A5D
:104C6C00696E67206469736B203020285344432994
:104C7C002E2E2E004469736B20696E697469616C09
:104C8C00697A6174696F6E206661696C65642E0067
:104C9C0043617061636974793A202564204D420048
:104CAC004D6F756E74696E6720766F6C756D652EC1
:104CBC002E2E004D6F756E74206661696C65642EC6
:104CCC00000D0A204C697374696E67206469726503
:104CDC0063746F72793A202F004469726563746F44
:104CEC007279206C697374696E67206661696C6592
:104CFC006421004469726563746F72792072656116
:104D0C0064206661696C65642E0057726974696E03
:104D1C006720746F2066696C65204E4F524449437E
:104D2C002E5458542E2E2E004E4F524449432E547E
:104D3C005854002020203C4449523E20202025730A
:104D4C000025396C752020257300556E61626C65E9
:104D5C0020746F206F70656E206F722063726561B6
:104D6C0074652066696C653A204E4F524449432E57
:104D7C005458542E0053442063617264206578614A
:104D8C006D706C652E005772697465206661696C74
:104D9C0065640D0A2E002564206279746573207792
:104DAC0072697474656E2E004E6F72646963005381
:104DBC00444300312E303000004C0000B44D000054
:104DCC00BB4D0000BF4D0000000200002D2E2F2C0B
:104DDC00C40B0020222A2B2C3A3B3C3D3E3F5B5D12
:104DEC007C7F000043000000504F534958000000E6
:104DFC00202020202020202020682828282820203F
:104E0C002020202020202020202020202020202096
:104E1C00481010101010101010101010101010104E
:104E2C0084848484848484848484101010101010EE
:104E3C001081818181818101010101010101010147
:104E4C0001010101010101010101011010101010FB
:104E5C001082828282828202020202020202020218
:104E6C0002020202020202020202021010101020C0
:104E7C0000070320041702010857104080000000AF
:104E8C00F04D0000F44E00000850000053756E0009
:104E9C004D6F6E005475650057656400546875005D
:104EAC004672690053617400000000004A616E0094
:104EBC00466562004D617200417072004D6179006F
:104ECC004A756E004A756C00417567005365700039
:104EDC004F6374004E6F7600446563000000000061
:104EEC00414D00504D0000002C5000002850000097
:104EFC0028500000285000002850000028500000C6
:104F0C0028500000285000002850000028500000B5
:104F1C00FFFFFFFFFFFFFFFFFFFFFFFFFFFF000093
:104F2C00684F0000984E0000A44F0000B84E0000DF
:104F3C00EC4E00004C4F0000FC4F0000584F00009E
:104F4C00256D2F25642F2579000000002561202573
:104F5C0062202565202554202559000053756E6468
:104F6C006179004D6F6E646179005475657364618D
:104F7C0079005765646E6573646179005468757265
:104F8C007364617900467269646179005361747568
:104F9C0072646179000000004A616E75617279007B
:104FAC004665627275617279004D61726368004189
:104FBC007072696C004D6179004A756E65004A75B6
:104FCC006C79004175677573740053657074656D09
:104FDC00626572004F63746F626572004E6F766526
:104FEC006D62657200446563656D626572000000F8
:104FFC0025483A254D3A255300000000F54800009D
:10500C00114900001D4900002949000045490000D4
:10501C00514900005D4900006B4900000000000090
:02502C002E0054
:1050300000000000002000400000000000200040B0
:105040000000000000000000FF000000C44D000050
:1050500000000000000100000090D0038C4E000012
:105060008C4E00008C4E00008C4E00008C4E0000D8
:040000030000037581
:00000001FF
