:1000000000000420750300005D0300005F03000092
:1000100061030000630300006503000000000000AE
:100020000000000000000000000000006703000066
:1000300069030000000000006B0300006D03000076
:100040006F0300006F030000CD2400006F03000069
:100050006F0300006F030000212300006F03000006
:100060006F0300006F0300006F0300006F030000C8
:100070006F0300006F0300006F0300006F030000B8
:100080006F030000E51700006F0300006F0300001E
:100090006F0300006F0300006F0300006F03000098
:1000A0006F0300006F0300006F0300006F03000088
:1000B0006F0300006F03000000000000000000005C
:1000C0006F0300006F0300006F0300006F03000068
:1000D0006F0300006F0300006F0300006F03000058
:1000E0006F0300006F0300006F03000000000000BA
:1000F000000000006F030000000000006F0300001C
:1001000000000000000000000000000000000000EF
:1001100000000000000000000000000000000000DF
:1001200000000000000000000000000000000000CF
:1001300000000000000000000000000000000000BF
:1001400000000000000000000000000000000000AF
:10015000000000000000000000000000000000009F
:10016000000000000000000000000000000000008F
:10017000000000000000000000000000000000007F
:10018000000000000000000000000000000000006F
:10019000000000000000000000000000000000005F
:1001A000000000000000000000000000000000004F
:1001B000000000000000000000000000000000003F
:1001C000000000000000000000000000000000002F
:1001D000000000000000000000000000000000001F
:1001E000000000000000000000000000000000000F
:1001F00000000000000000000000000000000000FF
:10020000354936480A1A02D0072291438D463449AF
:1002100034480A1A06D00722914381F30988022242
:1002200082F3148830483149314A00F044F83148AB
:100230003149324A00F03FF831483249324A00F041
:100240003AF832483249334A00F035F832483349F7
:10025000334A00F030F833483349344A00F02BF881
:1002600033483449344A00F026F8344834490022EF
:1002700000F02CF833483449002200F027F83348C6
:100280003349091A082902DB002202604160314A21
:1002900090471F481F49884205D00268043003B4C4
:1002A000904703BCF7E700208646EC46002000217B
:1002B000294A9047FEE7884207D0521A05D00378B2
:1002C00001300B700131013AF9D17047884202D0F8
:1002D00002700130FAE770470000042000E00320BC
:1002E0000000042000000420603E00000000002008
:1002F0003C000020D0030000D00300003E39000085
:10030000603E00000000002000000020A439000032
:10031000A4390000A4390000A4390000A439000069
:10032000A4390000A4390000A43900005E3E00009A
:100330009C3E00003C0000203C0000203C000020CF
:100340005C0800205C0800205C0800205C0800209D
:100350005C2800209D030000F5330000FEE7FEE767
:10036000FEE7FEE7FEE7FEE7FEE7FEE7FEE7FEE765
:1003700000F002B8FFF7FCBF0F484FF007018843B9
:1003800085460E4880470E48016841F470010160BF
:10039000BFF34F8FBFF36F8FFFF732BF09480A4992
:1003A0000A4A884207D0521A05D0037801300B70F0
:1003B0000131013AF9D1704700000420E534000012
:1003C00088ED00E0A43900000000002000000020BB
:1003D000F0B595B01D46164608460C4601F084FD62
:1003E0001A9B0D93CDE9086500252B46082205A927
:1003F00020460A958DF82C500C9501F092FD079B34
:100400000293069B03939DF814308DF8115003F06E
:100410000302012A1DD1BDF81420059DC3F3C203B8
:10042000C2F383168DF81030B20008230EA92046BF
:1004300001F077FDC5F3952508AB0093324602AB7A
:100440000EA9284600F0C6FB204601F051FD15B06C
:10045000F0BD022AF8D1BDF81650C3F3C203C5F3AC
:1004600089158DF810300827082D2E4628BF08263C
:100470003B4632460EA9204601F053FDAD1B08ABAA
:1004800002AA31460EA8374400F008FC002DEBD13B
:10049000DAE70000014B01221A7070477D0000204E
:1004A0007047000070B5124D06460FCD88B06C46FF
:1004B0000FC495E80F00002E84E80F004FF0FF33C3
:1004C0004FF00602CDE90023CDE90233094A0A487C
:1004D0004FF0EB7308BF00226946069301F08EFDD2
:1004E00008B100F043FE054B1E7008B070BD00BFA0
:1004F000A439000095040000000000203C0000200A
:1005000007B5044B0093044A4023FFF761FF03B093
:100510005DF804FB1D0500003D00002038B50D4BC3
:100520000D4D002018700D4804782D5DD2B21C4688
:1005300065B1043002F052FC08B100F017FE084B20
:100540001A7812B12378002BFBD038BD0C3002F0A2
:1005500001FAF1E77D0000200C07002000000020D8
:100560003C00002008B50848084A0378D35C3BB13A
:10057000043002F0CDFBBDE808400020FFF792BF39
:100580000C3002F093F9F6E7000000200C07002081
:100590000120FFF787BF000008B5FFF7F9FF044807
:1005A000042100F07FFA034B01225A7108BD00BFFD
:1005B0008039000014000020037813F0040216D0E4
:1005C00003F00303012B03D0022B09D00120704755
:1005D0000A6800880232C0F3831002440A60F5E71B
:1005E0000B684288023303EB92130B60EEE7104670
:1005F000704700002DE9F04F044685B0861C0020AE
:100600000F46154600F0B4FF454801683960D0E94F
:100610000132134401335B1A824600F21C4700F595
:10062000836900F21448B3421BD30020002D72D01E
:1006300004F00F039B0143F0050363F30F00DAF8A6
:100640000020DAF808301340033316444AF8230038
:100650000020CAF8006000F08DFF012005B0BDE861
:10066000F08F0121384601F072F9484601F087F910
:10067000404601F084F9DAF80400DAF808B0009096
:1006800000EA0B0003300AEB80006946FFF794FF95
:10069000009B50BB0BEA03020AEB820203F1020C3F
:1006A000D2680192013303EA0B0B0AEB8B0B02F0C9
:1006B0000302012ADBF80C10CDF800C023D0022A77
:1006C00016D08346404601F05DF910B1009BCAF890
:1006D00004305946384601F03AF9DAE90123134467
:1006E000DAF8002001339B1A9DE70BEA0300C9E703
:1006F000BDF80630C3F3891303334FEA114B0CEBFB
:1007000093030093DEE7BDF80430C3F383134FEA8D
:10071000114B6344F5E7A40544F006008FE700BFE2
:10072000500100200B4B0C48FF2210B59A600022AC
:10073000C3F81824C3E90022C3F8142483F8202442
:1007400001F08BFB044610B9044801F0F4FB20468D
:1007500010BD00BF5001002090390000F8390000A2
:1007600030B50A4C71B10A4A0A49121BD20800235B
:100770009A4201D1002030BD31F82350854202D089
:100780000133F5E7034654F83300F4E7403900003D
:100790008039000000000020094B013903EBC00044
:1007A000032909D8DFE801F00A0204060420704793
:1007B00000797047407970470020704702207047E9
:1007C00040390000034BD3E90030C31A5842584166
:1007D000704700BF500100202DE9F04385B0FFF7BE
:1007E000F1FF0646002840F0F5807B4DC5F818045F
:1007F000BFF34F8F6B68AC6800932340033305EB66
:1008000083006946FFF7D8FE009B18B1D5F818247D
:10081000002A5FD004EA0302991C013305EB82022F
:10082000234005EB8303D268DB68029302F00303E5
:10083000022B0192009160D1BDF806306748C3F3E6
:100840008917502FB84628BF4FF0500868F38F1310
:1008500008F10801ADF8063001F017FB0646002844
:1008600000F0A38001F040FB0023082201A93046DC
:1008700001F04DFB009924EA01020132B8EB820F2E
:100880004FEA820332D95FFA88F85BB32140DCB2C9
:10089000A8EB040803315FFA88F9A046504C05EB39
:1008A000810108234246304601F031FB34B108F1A2
:1008B00008034A462146304601F029FB009B0337D6
:1008C00003EB97070097D5F81834002B49D1D5F8DA
:1008D000104459E02A689A428FD86A60304605B0C1
:1008E000BDE8F0833E491C469946DAE70C40E11C1E
:1008F0000823424605EB8101DDE7012B55D1BDF808
:1009000004303648C3F38311062928BF062161F35A
:10091000891302318900ADF8043001F0B6FA0646B9
:10092000002842D001F0E0FA0023082201A9304655
:1009300001F0EDFA0027BDF80420C2F38312BB00DA
:10094000974203F10803BED200994A1C21400331AB
:10095000009205EB81010422304601F0D8FA0137FC
:10096000E9E7304601F0C4FAFFF72CFF80F0010000
:10097000C6B2B3E7E3685B7923B1236831461B68ED
:1009800020469847E3681C68002CF3D1304601F0FC
:10099000AFFA204600F0ECFDD5F818340BB9009BF7
:1009A0006B60002000F0E6FDDEE7D5F8104454B996
:1009B0000C4B0D480D49C01AC008000440F002005D
:1009C00000F062F8D0E7236820469B689847E36808
:1009D0001C68ECE7002681E75001002090390000F8
:1009E0005C0100204039000060390000E13900005E
:1009F0002DE9F74F224D04460F46924601A90122E8
:100A00001846D5F808909B46FFF7F4FD20B3019EE9
:100A10004FF00008B21CD84508EB020126D1194856
:100A2000002100F071FF80F31000000440EA144040
:100A3000E400731C04F0380403EA090306EA09061B
:100A400044F0010405EB8303033644EA881444EAC6
:100A50008724D86045F8264095F820341BB1FFF76D
:100A6000BBFE0028FBD103B0BDE8F08F09EA01010D
:100A700005EB81015AF82830CB6008F10108CAE77C
:100A8000500100206C05002000231A46FFF7B0BF7C
:100A900007B50123019201AAFFF7AAFF03B05DF891
:100AA00004FB000030B50F49D1F8102403460020A4
:100AB000144634B9DC6820714AB9C1F81034226098
:100AC00030BDE4682579854206D02468F1E7D26814
:100AD000116821601360F3E701300A28E8D14FF074
:100AE000FF30EDE750010020094A38B50123D2F864
:100AF000104482F820341D4604B938BDE3685D71A6
:100B0000236820465B689847E3681C68F4E700BFE9
:100B10005001002007B503460846197A052911D06F
:100B20005B7A2BB1094A0A49019000F085FF0198D0
:100B30000849019000F080FF019803B05DF804EBD4
:100B400000F06FBF002AF8D0F2E700BF043A0000BF
:100B5000093A0000293A000030B5C38885B0044640
:100B60000D4633B1144A00921449154A284600F044
:100B700063FF217A05291DD0637A4BB1A088FFF766
:100B80000BFE104B104953F82020284600F054FF6C
:100B9000227A0E4BA08853F8222003920021FFF7FF
:100BA000DFFD039A0A490346284605B0BDE83040F8
:100BB00000F042BF05B030BD043A0000143A000016
:100BC0000C3A0000903A0000093A0000B43A0000E4
:100BD0002C3A00002DE9F04385B01F460C9D002300
:100BE00095F80C902B7306460C46904629463846DD
:100BF000FFF7B2FFB8F1060F09D8DFE808F00412DA
:100C0000181F283340003146284600F015FF002207
:100C100029463846FFF77EFF85F80C9005B0BDE801
:100C2000F08322683146284600F006FFEFE7D4E95A
:100C300000233146284600F0FFFEE8E7A368009352
:100C40003146D4E90023284600F0F6FEDFE7E368EA
:100C50000193A36800933146D4E90023284600F0AD
:100C6000EBFED4E723690293E3680193A368009342
:100C70003146D4E90023284600F0DEFEC7E7636969
:100C8000039323690293E3680193A36800933146B9
:100C9000D4E90023284600F0CFFEB8E708292DE963
:100CA000F74F80460E4617461C463CD8002593F861
:100CB0000C901D7319461046FFF74EFFDFF888A011
:100CC000DFF888B0AE4231D918F8052059462046E1
:100CD00000F0B2FE0135082DF4D11949194DDFF8A5
:100CE00070A0204600F0A8FE4FF0000B5E4522D910
:100CF00018F80B207E2A05D81046019202F08EFDCE
:100D0000019A00B92E225146204600F095FE0BF1C3
:100D1000010BBBF1080FE9D1012221463846FFF74C
:100D2000F9FE84F80C9003B0BDE8F08F51462046E0
:100D300000F082FECEE72946204600F07DFEE6E781
:100D4000403A00003E3A00003C3A0000363A0000CB
:100D5000423A0000074B1B5C1F2B8ABF064A4FF02C
:100D6000A04203F01F03D2F80405D840C04300F0AE
:100D700001007047C83A000000030050074B1B5C9D
:100D80001F2B86BF064903F01F034FF0A04101222D
:100D900002FA03F3C1F80C35704700BFC83A0000EF
:100DA00000030050074B1B5C1F2B86BF064903F056
:100DB0001F034FF0A041012202FA03F3C1F80835E6
:100DC000704700BFC83A00000003005008B500207B
:100DD000FFF7E8FF0120FFF7E5FF0220FFF7E2FF42
:100DE000BDE808400320FFF7DDBF08B50020FFF78E
:100DF000C5FF0120FFF7C2FF0220FFF7BFFFBDE8DC
:100E000008400320FFF7BABF0A4B185C1F288ABFAF
:100E1000094B4FF0A04300F01F00D3F80425012137
:100E2000814021EA02000A40C3F80805C3F80C25F6
:100E3000704700BFC83A0000000300500B2809D0DB
:100E40000C2809D0182809D019280CBF03204FF00E
:100E5000FF30704700207047012070470220704724
:100E6000C20710B504460CD54FF0A0430322C3F8C7
:100E70003427C3F83827C3F83C27C3F84027FFF7C7
:100E8000A5FFA3070AD54FF0A0430C22C3F82C27D7
:100E9000C3F83027C3F86027C3F8642710BD0000EB
:100EA000C30710B507D4F023054A4008145C23405B
:100EB0001943115410BD0901C9B20F23F4E700BF53
:100EC0004006002030B5094B1C78094B19680023F7
:100ED0009C4202DC0022104630BD11F8335085429E
:100EE00001EBC302F7D00133F2E700BF0C0600208C
:100EF0006006002013B504460191FFF7E3FF38B107
:100F000043682BB10199204602B0BDE81040184754
:100F100002B010BD034B044819680022490800F0D4
:100F200024BA00BF100600201806002010B5C0B279
:100F3000FFF7C8FF0446007801F0E4F963785A1E11
:100F400053425341834208D1044BD3E90023134356
:100F500003D1BDE81040FFF7DDBF10BD380600200B
:100F600038B5334A43080446D35CC2074CBF1B095B
:100F700003F00F030D46042B59D8DFE803F00322DA
:100F80002A363900002952D00121FFF789FF0020BD
:100F900000F0EEFA0120A4F12003C4F12001254A5B
:100FA00020FA01F100FA03F30B43A040D2E900411B
:100FB00020430B43C2E90003BDE83840002000F0A5
:100FC000D9BA002918BF02212046BDE83840FFF7F2
:100FD00067BF41B10321FFF763FF20460121BDE850
:100FE0003840FFF787BF0121EEE701BB0421EBE7A3
:100FF00009B10321E8E7FFF753FF29462046FFF731
:1010000079FF284600F0B4FA0120A4F12003C4F1CE
:101010002001084A20FA01F100FA03F30B43A04033
:10102000D2E9004124EA000021EA0303C2E738BD07
:1010300040060020380600202DE9F041124E134FE3
:1010400000243378A34208DC114BD3E90023134377
:1010500018D0BDE8F041FFF75DBF3D6805EBC4085F
:1010600015F8340001F04EF998F801305A1E534239
:101070005341181A4142414115F83400FFF770FFFF
:101080000134DEE7BDE8F0810C0600206006002098
:1010900038060020092AF7B505460C4616463CD905
:1010A00001F060F8D8B11E4B1E481D601E4B1F4F4B
:1010B0001C701F4B002120221E6002F0DDFB1D4B27
:1010C00000200021C3E90001013CE4B20326FF2C0B
:1010D0000BD1194A1948002100F03CF903E001F056
:1010E00009F80028DFD003B0F0BD9DF8063015F8F0
:1010F00034008DF8046005EBC40223F007038DF87B
:10110000063001A993788DF805303A4601F034F89D
:10111000013CE4B20028DAD0E5E70720E3E700BFAE
:1011200060060020400600200C0600202D0F000065
:10113000100600203806002039100000D83A0000C0
:1011400070B5084D084E00242B789C4201D3002036
:1011500070BD3368012113F8340001F089F80134BF
:10116000F2E700BF0C060020600600201FB500213A
:10117000039001AA44F20100CDE9011100F004F846
:1011800005B05DF804FB000010B572B6FFF7ACFCCB
:10119000FFF722FB0028FBD1104B114C1149E41A38
:1011A000E408240444F00100FFF76EFC0E4B1B68BA
:1011B000DB0700D500BE0D4944F00200FFF764FCD8
:1011C000BFF34F8F0A490B4BCA6802F4E062134326
:1011D000CB60BFF34F8F00BFFDE700BF4039000079
:1011E00060390000DC3A0000F0ED00E0E83A000071
:1011F00000ED00E00400FA05D0E90223D1E9020184
:10120000994208BF90422CBF012000207047000087
:1012100008B50B4800F0D1FA0A4B0B49D3E900237B
:101220001218D1E9000143F100038B4208BF82424A
:1012300003D212F1807243F100031046194608BD33
:101240001C00002068060020E006002037B5054697
:101250000C460A4801A900F0E2FA60B1057044604A
:1012600001A9064800F005FB18B1054800F0AAFAEC
:10127000002003B030BD0420FBE700BFCC060020F7
:101280001C00002038B5184B1B78044613B9002504
:10129000284638BD0028FAD0037F03F0FF05002B55
:1012A000F5D0FFF7B5FFD4E90223994208BF904279
:1012B00014D3236903B92377D4E90530984721690A
:1012C0000029E4D0237F03F0FF05002BDFD0D4E911
:1012D0000223521843F10003C4E9022303482146C4
:1012E00000F032FED4E700BF70060020043B00008F
:1012F00013B5114B11491868019008231048582262
:1013000000F07AFA044698B90E4A0F4801A900F095
:1013100041F9044660B90C48012100F031FA01237B
:101320000A4A0948194600F093F9094B01221A703C
:10133000204602B010BD00BF003B00007406002034
:10134000CC060020B51300001C000020FFFF7F002A
:10135000700600203AB103685A614A1E5142514159
:101360001961002070470720704738B5037F044695
:101370000D4683B98261FFF74BFF2369401941F1A4
:101380000001C4E9020103B1256121460020BDE846
:101390003840FFF75BBF002038BD002301460377CC
:1013A0000120FFF753BF0000014800F006BA00BF5C
:1013B0001C0000202DE9F04F85B0804600F0E8F9D0
:1013C00040B15A4AD2E9003113F1807341F1000172
:1013D000C2E900310021404600F0E9F938B1544E2D
:1013E000336823B13068FFF74DFF002333600121DC
:1013F000404600F0DCF920B1FFF70AFF4D4BC3E98E
:1014000000014D484A4F4D4EDFF8389103A900F0D6
:1014100040FA002845D1DFF82491454EDFF828A195
:10142000484600F0A7FD3368002875D07BB13368CB
:10143000D0E90201D3E90223994208BF90422DD29C
:1014400033681B7F1BB13168484600F07DFD48467C
:1014500000F08AFDD0E902B307460193FFF7D8FEFA
:10146000019BBBEB000463EB0105012C75F100034C
:1014700045DBB4F5350F40D3FFF796FF304A024401
:101480004FF496030021504600F002F900283ED1A7
:10149000336813B9404600F0D3F8376005B0BDE8B3
:1014A000F08F0378012B1DD0022B09D14FF0000AD9
:1014B000304600F059FD002834D080F81CA0F7E732
:1014C0003BB941680B7F23B901230B77304600F00D
:1014D0003BFD03A9184800F007FA03A9164800F0DD
:1014E000D8F996E741683B68994202D100233B60F6
:1014F000EFE7304600F041FDEBE7BA68C0E70021B6
:10150000504600F04AF93846FFF7BCFE01E00D28CE
:10151000F9D00023336083E7002BBFD1404600F0B1
:1015200093F8BBE7012389F80030D2E76806002072
:10153000E8060020E0060020CC060020043B000066
:10154000FFFFB400700600201C00002072B6024AA3
:101550001368013313607047EC060020034A1368D8
:10156000013B136003B962B6704700BFEC06002070
:10157000FFF7ECBFFFF7F2BF435882B03BB1002347
:10158000435043580193019B012002B07047184615
:10159000FBE70000F8B5224B4679224C43F82620A1
:1015A000214A224B9B1A04EBC602DB0812791B046A
:1015B000F70032B143F002001D49FFF765FA082039
:1015C000F8BD02680D88C2F8085590F904500279F8
:1015D0008978002DADBF05F1604CDFF85CC002F0EA
:1015E0000F0E0CF5614C4FEA4111C9B2B4BF0CF8B3
:1015F0000E108CF800136D090121DFF840C002F0D5
:101600001F0201FA02F24CF82520E21944F83600D4
:10161000117143F003000749FFF736FA0020CFE7C6
:10162000F8060020F0060020403900007039000064
:10163000103B0000323B000014ED00E000E100E050
:10164000036801221A607047036801225A607047DC
:1016500073B501F15005AD000068ADB24FF48034B0
:101660008C400026C0F80843C0F84843465101F5B5
:10167000A8714559019522F07F42019D40F8212033
:10168000C0F844430BB1C0F8044302B070BD000081
:101690002DE9F74F0D4622F07F4402684FF4803762
:1016A00005F150068F408046B60002EB8500C2F877
:1016B0004873B6B2C2F80873D2F8041599464FF0D1
:1016C000000BD0F84035C0F8401542F806B05B1A60
:1016D0009259009223F07F43012B009A4FEA850A2A
:1016E0000CD1264B4FF4806043F001039847D8F8A3
:1016F000003043F806B09B590193019BD8F80010C5
:10170000D1F80465C1F84473A31B23F07F43012B78
:101710001CD11A4B05F5A875013443F0010341F8BB
:1017200025404FF480609847D8F80030D3F804354E
:101730009E4209D1D8F800300020C3F84473C3F8A2
:10174000047303B0BDE8F08F0D20FAE78A44C9F1B5
:10175000FF13CAF84045D1F80405221A013A22F0D5
:101760007F4203F57F439342EED3002AE2D1013456
:10177000CAF84045D1F804359842DAE7503B0000FA
:1017800003680222C3F8442309B1C3F80423704755
:1017900000684FF48271FFF7EFBE4FF4803303FA15
:1017A00001F10368C3F84813C3F8081370475031B8
:1017B0008900006889B2FFF7DFBE0368D3F804052B
:1017C0007047000090F9043001215A0903F01F030B
:1017D00001FA03F34032024941F82230704700BF5A
:1017E00000E100E0024B034A1B681068184700BF85
:1017F000F8060020F006002010B561B1B2FBF3F44A
:1018000003FB1424A4B244B9C0E9001484608281AB
:10181000C381204610BD0E20FCE70920FAE737B54A
:1018200050E8013F9DB2C48925448489A54228BF60
:101830002D1B0489A54202BFBFF32F8F002207E0B2
:10184000C5EA030540E80154002CE9D14FF001023C
:101850008DF803200193019B9DF803200B6002F09B
:10186000FF0322B10B880068184403B030BD18464E
:10187000FBE70A884B889A4209D150E8012FC2EA57
:10188000024240E80123002BF7D1012070470020DD
:10189000704737B550E8023F1FFAA3F5C488A54248
:1018A00002BFBFF32F8F00220DE0C4892544848935
:1018B000A54228BF2D1BC3EA054540E80254002C71
:1018C000E8D14FF001028DF803200193019B9DF8B0
:1018D00003200B6002F0FF0322B14B88006818441C
:1018E00003B030BD1846FBE70A884B889A4209D1FD
:1018F00050E8022FC2EA224240E80223002BF7D12F
:10190000012070470020704710B5034653E8000FD0
:101910000A4643E8002494F0000FF7D110BD10B53B
:10192000034653E8002F42EA010043E8000494F024
:10193000000FF6D110BD10B5034653E8000F00EAC2
:10194000010243E8002494F0000FF6D110BD10B559
:10195000034653E8002F02EB010043E8000494F033
:10196000000FF6D110BD10B5034653E8002FA2EBCF
:10197000010043E8000494F0000FF6D110BD0121EE
:10198000FFF7CDBF0021FFF7D6BF10B590B1D0E96A
:10199000012301689B1ADBB20A60013BDBB2FF2B1B
:1019A000026802D10020107110BD11684C1C146037
:1019B0000B70F2E70E20F7E738B504460020FFF77A
:1019C000D7FD226863681168994213D9481E1060D8
:1019D00011F8015CE368218A01FB0535A3681179E0
:1019E0001B1ADBB2994200D213710020FFF7C2FD2F
:1019F000284638BD0025F8E738B5054600200C46D6
:101A0000FFF7B6FD2A681368591C1160E968641A6B
:101A1000298AB4FBF1F41C70BDE838400020FFF7C0
:101A2000A9BD826810B504462AB1436901680069FE
:101A300098470023A36010BD0EB403B5039921B1EC
:101A400004AB01AA019300F077F802B05DF804EB53
:101A500003B070470A2938B504460D4602D10D215E
:101A6000FFF7F8FFA3682268591CA160D554D4E998
:101A700001329A4204D32046BDE83840FFF7D1BF77
:101A800038BD00002DE9F84F9846DDE90A431546B8
:101A900082460F460A464FF00109AA420FD2C145BD
:101AA00038BFC14613F0010B01D16CB900240126E7
:101AB000B8F1010F1BD908F1FF386E43F8E709F1BF
:101AC0000109B2FBF5F2E8E79B070ED5B8F1000F6C
:101AD0000CBF30262026A145E9D2013C31465046B4
:101AE000FFF7B8FF002CF6D1E0E72026F3E7B7FBBD
:101AF000F6F39D42E1D9DFF83C80B7FBF6F35046A0
:101B000018F8031006FB1377FFF7A4FF3346AB4228
:101B1000B6FBF5F6F1D2BBF1000F02D00CB1A14536
:101B200001D3BDE8F88F20215046013CFFF792FF1A
:101B3000F4E700BF563B00002DE9F74F0546174676
:101B40008846002900F0428118F8011B49B92B7B17
:101B5000002B00F03B81284603B0BDE8F04FFFF7B3
:101B600060BF252940F0B780002698F800302D2B63
:101B7000424608F1010823D0302B24D02B2B25D04E
:101B800000242A2B02F1010123D13B681A1D1B6896
:101B90003A601C440A4613782E2B26D101324FF0AE
:101BA000000A104610F8011BA1F1300CBCF1090F1E
:101BB0001DD80A2303FB0A13A3F1300A0246F0E7FB
:101BC00046F00106D1E746F00206CEE746F00406ED
:101BD000CBE711F8013CA3F130000928DBD80A2239
:101BE00002FB0434303C0A46CBE74FF0000A12F8FF
:101BF000011B01F0FB0068289046F8D0782909D82D
:101C00006F290CD8632962D022D8252963D058299E
:101C100000F0888098F80030002B95D197E7703954
:101C20000829F7D801A353F821F000BFA71D000031
:101C3000151C0000151C0000351D0000151C0000BF
:101C4000131D0000151C0000151C0000251D0000C0
:101C5000642901D06929DDD13A68D2F80090111DBC
:101C600089EAE9723960A2EBE9724FF0010B092AA7
:101C700035DCD34538BFD3462CB1B9F1000F01DBB9
:101C8000720700D5013CB30702D5BAF1000F03D0AB
:101C9000F00701D44CBB0024B9F1000F2DDAC9F1D3
:101CA00000092D212846FFF7D5FE06F00302022A7F
:101CB00004D1BAF1000F01D11CBB0024CDE90046CC
:101CC00053460A2249462846FFF7DCFEA2E73B6856
:101CD0001A1D19783A602846FFF7BCFE9AE70A23D6
:101CE0000BF1010BB2FBF3F2C1E7A345D4D22021E3
:101CF0002846013CFFF7AEFECCE77107D5D52B2176
:101D0000D0E7A345DAD230212846013CFFF7A2FEF6
:101D1000D2E73968CDE900460A1D3A6053460A22E7
:101D20000968D0E739680A1D3A60CDE90046534694
:101D30001022F5E73B681A1D3A6016F00106D3F849
:101D4000009028D1B9F1000F03D0484601F0C7FD3B
:101D50000646B44200D904BB09F1FF3919F8011F46
:101D600000293FF457AF2846FFF774FEF6E72846F0
:101D70000136FFF76FFE19F806100029F7D1A642C9
:101D8000BFF448AF002C3FF445AF20212846013C6A
:101D9000FFF760FEF3E70026EDE720212846013C2F
:101DA000FFF758FED5E73B681A1D3A6030212846F8
:101DB0001C68FFF74FFE78212846FFF74BFE0022F4
:101DC0000823CDE90032214610227CE703B0BDE8AC
:101DD000F08F00BF2DE9F84FB0F806A04579D2F892
:101DE00000B09DF828900AFB05F5043D88460BEBF2
:101DF0000301A94203F1040488BFA5EB030BB4FB64
:101E0000FAF607460AFB1644C2F800B04EB9AAEB30
:101E100004055D4528BF5D46BBF1000F04D1BDE858
:101E2000F88F3F68013EF1E7043408EB06003C44BC
:101E30002A46B9F1000F0DD02146ABEB050B01F09E
:101E4000F2FCDA452E443F6855464FF0000428BFA7
:101E50005D46E1E701462046EFE7FFF796BDF8B59E
:101E600046790146721E0546002393422D6803D32E
:101E70000024A64202D8F8BD0133F6E70F682846D1
:101E8000FFF7BAFD01343946F3E72DE9F843068A36
:101E9000CD1C0746FFF790FD043E35440446B5FBD4
:101EA000F6F5F0B14FF48073EDB28380C680013D4A
:101EB000076081464FF00008A84512D23846FFF768
:101EC0007BFD064648B163790133637108F101086F
:101ED000C9F8000007608146EEE72046FFF7BFFF24
:101EE00034462046BDE8F88301210430FFF72FBDBA
:101EF00010B5012104460430FFF735FD10F0FF0F47
:101F000004D12046BDE81040FFF7A9BF10BD1FB5A2
:101F100003920022009203AAFFF75CFF05B05DF870
:101F200004FB1FB503920122009203AAFFF752FFA0
:101F300005B05DF804FB836800225A60C3E90422FF
:101F40009A60DA601A60704770B5446806460D46BC
:101F5000206818B1B3682946984718B923682B60E0
:101F6000256070BD2468F3E74368186808B102680B
:101F70001A6070474368186870474368186800B96A
:101F80007047884203D102681A60012070470346F7
:101F90000068F4E71FB503788DF8003043680193BB
:101FA00083688DF80830C368054A0393054B68467B
:101FB00053F8213052F82110984705B05DF804FB22
:101FC000FC060020040700201FB503788DF80030C0
:101FD0004368019383688DF80830C368054A03930A
:101FE000054B684653F8213052F82110984705B048
:101FF0005DF804FBFC06002004070020F0B5194B37
:1020000090F800C0DFF86CE043F82C20164B164621
:102010000A6943F82C204B7F0EF80C300C4607461B
:102020000FCC89B06D460FC594E80F0085E80F000E
:102030001EF80C30CDF810C04BB1002E0B4A69468B
:1020400008BF3246381D00F07FFD09B0F0BD002EFC
:10205000074A694608BF324607F10C0000F050FB02
:10206000F3E700BF04070020FC060020951F0000D6
:10207000C91F00000C07002000F1804000F5C0409F
:10208000002382B0036003680193019B02B0704794
:1020900003681F2B83BF03F01F03036001484FF049
:1020A000A04070470003005007B5019001A8FFF75A
:1020B000EFFF019B00EB8300D0F8003723F440339F
:1020C000C0F80037D0F8003743EA0141C0F80017E4
:1020D00003B05DF804FB0000054B4FF0FF3207280A
:1020E00043F8202084BFC01880F85820704700BFF4
:1020F0001007002010B5174C94F86A3043BB04F168
:1021000030033021FF22013911F0FF0103F8012BC8
:10211000F9D1C8B2FFF7E0FF01310C29F9D106224D
:1021200000210D4801F0A8FB0C4BC02283F80623C8
:1021300040221A604FF4BE70FFF79EFF084B4FF02D
:102140000042C3F80423012384F86A30002010BD44
:102150000820FCE7100700207407002000E100E0E1
:1021600000600040034B93F86A00003818BF01205C
:10217000704700BF10070020F7B53B4E33180546E7
:1021800093F93030002B6CDA8B78C3F34003002BCB
:102190000BBF082400240C200820844202D1042014
:1021A00003B0F0BD56F82470013743D1701946F8DA
:1021B000242080F8304013B9331983F858508B78B5
:1021C0005A0717D4D80737D501A80195FFF760FF44
:1021D000019B00EB8300D0F8003723F00203C0F826
:1021E00000372248EA0805F007070123BB40875C57
:1021F0003B4383548B780A7813F0020328D0A40061
:1022000004F1804404F5C0442D02D4F8103523F4C1
:102210004F3323F44073C4F810351204D4F810354A
:1022200005F47C5502F4403215431D43C4F81055A3
:102230000020B5E70134B0E701A84A780195FFF71F
:1022400027FF019B03F5E073920040F82320C8E7C5
:10225000083C344494F8605045EA821284F86020C7
:10226000E6E708209CE700BF100700207407002065
:1022700073B5224C2618054696F93020072A1ADD38
:10228000224492F858309B09032B0FD1019001A8EA
:10229000FFF7FEFE019BD0F81015D94001F00101B7
:1022A00002312846FFF700FF02B070BD012B0CBFC2
:1022B00002210321F5E7D3B2072BF5D8930003F1F0
:1022C000804303F5C043D3F8100540F00100C3F884
:1022D000100502F14000800080B2FFF7CDFE00291A
:1022E000E2D096F9303054F82330002BDCD00123B3
:1022F00003FA02F2024BC3F80423D5E710070020CB
:102300000060004007B5019001A8FFF7C1FE019BE6
:10231000D0F81005D84000F0010003B05DF804FBD0
:102320002DE9F04F002489B0CDE90244624D4FF40D
:102330008072012102F1804303F5C04390B21B6813
:10234000012B06D1D5F804330B4202D0FFF794FEDF
:102350000C430432B2F5907F4FEA4101EAD1574B6A
:102360001B68012B0ED14FF4BE70FFF785FE4FF0B6
:10237000A04344F00044D3F810350293504BD3F8F7
:102380001035039314F0FF0F1AD04E4F002501268D
:10239000344210D0AB0003F1804303F5C043D3F8BF
:1023A0001005D3F8101557F8253023B1C1F30141BA
:1023B000C0F3052098470135082D4FEA4606E7D1BE
:1023C000002C75DA04AF002304937B604FF0FF33D9
:1023D000CDE90633DFF8EC90DFF8EC8000263546D7
:1023E00018F9012B531C4AD0C2F3C2000123D4B206
:1023F00002F03F0B02F0070203FA02F208AB1918D1
:1024000011F8083C13423AD009EB0B03A40993F9E5
:10241000303059F823A0BAF1000F08D1032C2ED187
:1024200017F800C04CEA020C07F800C001E0032CCA
:10243000F6D001A8CDF804B0FFF72AFE019B11F8F1
:10244000181C03F5E07C114250F82C00C0F3014049
:1024500005D0022813D1032C0BD1214604E0032818
:102460000DD1032C05D102215846FFF71DFE013581
:10247000EDB2BAF1000F02D021465846D0470136DE
:10248000042EADD1A5B14FF0A0430299D3F8102589
:1024900003F540739142D3F8103502D10399994264
:1024A00006D002920393049A059B0692079393E742
:1024B00009B0BDE8F08F00BF006000407C610040C3
:1024C000000300501007002070070020014B1B681C
:1024D000184700BF7C07002038B50B4B98420C46CC
:1024E00001D0002038BD0020FFF742F8074B1D79CE
:1024F00015B901221C601A710020FFF73BF8002D6E
:10250000EFD01120EEE700BF002000407C07002044
:10251000034B984201BF034B00221A601A717047A7
:10252000002000407C0700200023435082B0435825
:102530000193019B02B070470A4610B54FF48E71AB
:10254000FFF7F2FF136A9168C95C136A01331362E3
:10255000C0F81C1510BD8B690A4610B54FF4847184
:1025600023B9FFF7E1FFD0F8183510BDFFF7DCFF06
:10257000536AD168D0F81805C854536A01335362BE
:10258000F3E700001FB501238DF80030044BCDE9BF
:102590000110D3E900126846904705B05DF804FBCE
:1025A0008407002030B54C48D0F8043313F4007F82
:1025B00085B005464DD0D0F82431002B49D04FF4DA
:1025C0009271FFF7B1FF4FF40173C0F80833434B2A
:1025D00093F829200AB9012242603F4902228DF86E
:1025E0000020D1F88024C1F8802403929A690292D5
:1025F000DA6801920022C3E906226846D3E9001294
:1026000090473548D0F81C315BB134494A690B6AB0
:102610009A420A464AD991F82830002B46D1FFF752
:102620008BFF2D48D0F844318BB14FF4A271FFF7E6
:102630007BFF2A4B93F829200AB1012202609A6994
:102640002AB10022586AD9689A61FFF79BFF05B04A
:1026500030BDD5F804335B07D3D5D5F80831002B4E
:10266000CFD01E4C1C482146FFF775FF636AA26954
:102670009A422346C5D1E269E1684AB12369E36021
:102680000023606AA261E3616362FFF77BFFB8E742
:1026900094F829200AB901226A600F4A4FF40170A8
:1026A000C2F808030022586A9A61EEE70A484FF41C
:1026B0008E71FFF739FF5369002BB2D05169029137
:1026C000002391688DF80030019153616846D2E98A
:1026D00000139847A5E700BF0020004084070020B2
:1026E0001F2886BF00F01F00044B4FF0A04300F5E9
:1026F000E070022243F82020704700BF0003005022
:102700002DE9F843634B057991462C2202FB0532F3
:10271000064692F82A200C469846002A40F0B680D9
:102720005D490068FFF7D8FE0746002840F0B080FA
:1027300021684A1C10D01F2987BF584A01F01F0387
:102740000B464FF0A0420120984003F5E073C2F819
:102750000805032042F823006068431C0DD01F28A1
:102760008BBF00F01F0303464C4A4FF0A04203F515
:10277000E0734FF0000C42F823C03368A269C3F83D
:10278000242594F814C0627DBCF1010F4CEA0202CA
:10279000C3F86C25C3F81405C3F80C152BD1A16838
:1027A000481C0DD01F298BBF01F01F020A463B4871
:1027B0004FF0A04002F5E0724FF0000C40F822C04C
:1027C000E068421C13D01F2887BF344A00F01F0C5A
:1027D00084464FF0A0424FF0010E0EFA0CFE0CF5AD
:1027E000E07CC2F808E54FF0030E42F82CE0C3F895
:1027F0000805C3F810152C236B4308EB0302C2F83D
:102800000490226948F80320B9F1000F2BD03068FA
:10281000247F4FF48E71FFF787FE30684FF4A2716A
:10282000FFF782FE32681E4BC2F80433110B42F3ED
:102830000732002AA8BF02F160404FEA4413BABF32
:10284000184801F00F0400F56140DBB2B4BF035536
:1028500080F8003301F01F01012303FA01F152094E
:10286000114B43F8221033680422C3F800252C23AF
:1028700003FB05830022C3E9062283F829205A615D
:10288000012283F82A203846BDE8F8830827FAE7B2
:102890001127F8E784070020A52500000003005059
:1028A0008000020014ED00E000E100E02DE9F041BD
:1028B00003680479244D0022C3F800252C2202FB72
:1028C0000452014652686AB1204AC3F8082343F310
:1028D0000732C3F3043652090120B04020321C4EA7
:1028E00046F82200D3F80C05D3F81485D3F8086510
:1028F000D3F810754FF0FF329042C3F81425C3F897
:102900000C25C3F80825C3F8102501D0FFF7E8FE11
:10291000B8F1FF3F02D04046FFF7E2FE7A1C02D03A
:102920003846FFF7DDFE731C02D03046FFF7D8FEB5
:102930000868FFF7EDFD2C2303FB0454002384F803
:102940002A306360BDE8F081840700208402020021
:1029500000E100E02DE9F047204F90F804904FF09F
:102960002C0808FB097405466669002E34D16261A3
:102970000068A16026624FF48E7184F82860FFF72A
:10298000D3FD2868012383602146FFF7D5FD6368E6
:10299000A0468BB92868D4F814A0236A9A4511D8A8
:1029A0002A68D2F81C31002BFBD00123D3602C23E2
:1029B00003FB097300225A613046BDE8F08794F8A2
:1029C00028303BB9D0F81C31002BF8D04146FFF736
:1029D000B3FDE2E70F26EAE71126EDE784070020C2
:1029E0000023435082B043580193019B02B07047CB
:1029F0001FB501238DF80030044BCDE90110D3E958
:102A000000126846904705B05DF804FBB00700204F
:102A10001F2886BF00F01F00044B4FF0A04300F5B5
:102A2000E070022243F82020704700BF00030050EE
:102A30007FB5434AD2F82461002E60D010464FF48F
:102A40009271FFF7CDFF02238DF80030D2F8803469
:102A5000C2F880340393D2F83C350293394BDA68DC
:102A600001920022C3E906226846D3E9001290478A
:102A70003348D0F8443173B14FF4A271FFF7B0FF7F
:102A8000304B9A693AB10022C3E90622D968D0F8DE
:102A90003C05FFF7ADFF2A48D0F82031ABB14FF429
:102AA0009071FFF79DFF0123C360264B5A6962B105
:102AB000D0F84C150291002299688DF80020019100
:102AC0005A616846D3E9001290471D48D0F8583142
:102AD0009BB14FF4AC71FFF783FF1A4B5A6962B197
:102AE000D0F84C150291002299688DF800200191D0
:102AF0005A616846D3E90012904704B070BDD2F81D
:102B00001031002BB4D04FF488711046FFF768FFE6
:102B10000C4BD2F83C0599698842A9D1DC69D96887
:102B200064B1D2F8005225F02005C2F800521A69AB
:102B30009C61DA60DE61FFF75BFF99E79C61FAE771
:102B400000200040B00700202DE9F8436A4B0679C9
:102B50009146242202FB0632044692F820200D46BC
:102B60009846002A40F0C38064490068FFF7B4FC2F
:102B70000746002840F0BD802868421C10D01F285E
:102B800087BF5F4A00F01F0303464FF0A0420121B8
:102B9000994003F5E073C2F80815032142F82310A9
:102BA00069684B1C0DD01F298BBF01F01F030B461A
:102BB000534A4FF0A04203F5E0734FF0000C42F887
:102BC00023C02368AA69C3F8242595F814C06A7D38
:102BD000BCF1010F4CEA0202C3F86C25C3F80C05E6
:102BE000C3F814152BD1A968481C0DD01F298BBF21
:102BF00001F01F020A4642484FF0A04002F5E07281
:102C00004FF0000C40F822C0E868421C13D01F2887
:102C100087BF3B4A00F01F0C84464FF0A0424FF0A4
:102C2000010E0EFA0CFE0CF5E07CC2F808E54FF040
:102C3000030E42F82CE0C3F80805C3F8101524234E
:102C4000734308EB0302C2F804902A6948F8032092
:102C5000B9F1000F3AD020682A7F4FF48871FFF74E
:102C6000BFFE20684FF49071FFF7BAFE20684FF462
:102C70009271FFF7B5FE20684FF4A271FFF7B0FE26
:102C800020684FF4AC71FFF7ABFE23681D49C3F811
:102C90000413190B43F30733002BAEBF03F160405D
:102CA00001F00F0518484FEA4212A8BF00F5614035
:102CB000D2B2B4BF425580F8002301F01F010122B7
:102CC00002FA01F15B09114A42F823102368082235
:102CD000C3F80025242303FB06830022C3E9062250
:102CE0005A61012283F820203846BDE8F88308277E
:102CF000FAE71127F8E700BFB0070020312A0000EB
:102D0000000300501003420014ED00E000E100E079
:102D10002DE9F0412E4E0579242303FB056304467B
:102D20005B6800686BB12B4BC0F8083340F3073386
:102D3000C0F304315B0901228A402033264941F85F
:102D40002320D0F80032012223F02003C0F8003203
:102D50004FF4AC714260FFF743FE2368DA60D3F8AA
:102D60005821002AFBD00022C3F80025D3F80C0517
:102D7000D3F81485D3F80815D3F810754FF0FF3247
:102D80009042C3F80C25C3F81425C3F80825C3F8EE
:102D9000102501D0FFF73CFEB8F1FF3F02D04046BE
:102DA000FFF736FE7A1C02D03846FFF731FE4B1C87
:102DB00002D00846FFF72CFE2068FFF7A9FB24236A
:102DC00003FB0565002385F820306B60BDE8F081CA
:102DD000B00700201003420000E100E001F0604372
:102DE000B3F1005F2DE9F041064638D11E4B07795B
:102DF000242505FB073598466C69002C31D16A61A2
:102E00000068A9604FF49071FFF7EAFD4FF4AC71D0
:102E10003068FFF7E5FD33686A69A968C3F84415AF
:102E2000C3F8482501229A606A68AAB9D3F820211C
:102E3000D3F858411AB9002CF8D00F2407E0002C21
:102E4000FBD10122DA60D3F85821002AFBD02423D9
:102E500003FB078700237B612046BDE8F081102437
:102E6000FAE71124F8E700BFB007002010B5C1B29F
:102E70000020034621FA03F2C3F1070402F0010225
:102E80000133A240082B40EA0200F3D110BD00003C
:102E9000F8B5424C00260723C4F80C65C320C4F8DB
:102EA0000835C4F81065FFF7E1FF0546C220FFF7BB
:102EB000DDFF0304C12043EA0565FFF7D7FF07469E
:102EC000C020FFF7D3FF054345EA0725C4F8245582
:102ED000C720FFF7CBFF0546C620FFF7C7FF030457
:102EE000C42043EA0565FFF7C1FF2843C4F828055D
:102EF0000120FFF7BBFF054640F22310FFF7B6FFA6
:102F00000304274843EA0565FFF7B0FF0746254855
:102F1000FFF7ACFF054345EA0725C4F81C55892097
:102F2000FFF7A4FF054648F6AB10FFF79FFF030429
:102F30001D4843EA0565FFF799FF07461B48FFF761
:102F400095FF0543012345EA0725C4F82055C4F839
:102F50002C65C4F83035164BC4F81465C4F8183520
:102F60000223C4F83435D4F8343503F00303022BBC
:102F700007D14FF6FF73C4F83C350E4BC4F8383513
:102F8000F8BDD4F8343503F00303012BF8D1FF2347
:102F9000C4F83C3540F20713F0E700BF00100040D2
:102FA0004523010067452301CDAB8900EFCDAB89F7
:102FB00001010401211001000220FDF725BF0000DE
:102FC0002DE9F04780460D46FDF738FF03280446FB
:102FD00010D8012D10D0022D30D05DB91A48FEF75F
:102FE000DCF91A4B04EB440213449E78184B1B5D2A
:102FF000B34219D0BDE8F087144D00EB4002A91888
:10300000AE5C4A78470052B1DFF84C900E484A4611
:103010004FF48041FEF7A9F908B989F800803B19FF
:103020002B449A780A4B1A55002EE3D0094B1B68A3
:10303000002BDFD03046BDE8F047184700EB4004D6
:10304000024804446678EFE7F807002038080020BB
:10305000510800204C080020D407002000780221ED
:10306000FFF7AEBF08B5094B1B7853B10020FDF741
:1030700099FE0120FDF796FEBDE808400320FDF70C
:1030800091BEBDE80840FDF7A1BE00BFD5070020F6
:10309000F8B57B4C237805461BB100232370FFF75E
:1030A000E1FF172D00F28880DFE805F00C171743C9
:1030B00054657680888D888D959A9A9A9A9AC4C913
:1030C000D1D9E4E4FFF7CEFF6E48FEF766F96E4B08
:1030D000002204461A702046F8BD0020FDF73AFE93
:1030E000F8B10020FDF75EFE022D0CBF4FF4E16148
:1030F0004FF47A61644B1D704FF400404FF47A74C2
:103100000025E0FB01454FF4FA62002320462946E2
:1031100000F0C4FA00220146BDE8F8405948FEF725
:1031200024B9FDF72BFE022D0CBFC8214FF4C87146
:10313000E0E70020FDF70EFE40B10020FDF732FE73
:103140004FF44871504B03221A70D5E7FDF716FE75
:10315000C821F7E70020FDF7FDFD38B10020FDF79D
:1031600021FE4FF47A61484B0422EDE7FDF706FE9D
:103170004FF4C871F7E70020FDF7ECFD48B10020DF
:10318000FDF710FE404B05221A7040F6CD4100229B
:10319000C2E7FDF7F3FDF5E70020FDF735FE3A4BFA
:1031A00006221A70002240F26661B5E70020FDF7A2
:1031B000E5FD354B07221A7000248CE701202070B2
:1031C000FDF722FEEEE701202070FDF71DFE002234
:1031D0004FF40051A0E7FDF708FE2B4B0C22EAE765
:1031E0002A482B4EFEF7D9F8D5F1110504461CD01C
:1031F000D8B9012D13D0C8235D434FF400474FF4D5
:103200007A7000214FF4FA620023C7FB050100F039
:1032100045FA224601461D48FEF7A7F8044602205B
:10322000FDF7ACFD0123337055E70220FDF7BAFD31
:103230000023F8E7FFF716FF134B1222BBE7FFF757
:1032400011FF0020FDF79AFD0F4B1322B3E7FFF7A4
:1032500009FF0120FDF792FD0B4B1422ABE7FFF7AE
:1032600001FF0020FDF78AFD0120FDF787FD064BD9
:103270001522A0E7FDF7B9FD034B1D709CE700BFC9
:10328000480800201808002050080020D807002017
:10329000D5070020044B1B68DB0703D5034B1878C8
:1032A000FFF7F6BE704700BF44080020500800201A
:1032B000044B1B6813F0010301D0FFF7E9BE184669
:1032C000704700BF4408002038B51C4B18601C4BE9
:1032D00010F00204054619601AD01A4B1A480E2243
:1032E0001A700F22DA7010229A7111225A72042178
:1032F00040F23332FDF7CEFE044648B9FDF720FF19
:10330000044628B90146114A1148FEF723F804463D
:10331000EB0711D50120FDF7A3FD6CB921460D4A3D
:103320000D48FEF717F8044630B9BDE838400B4A9F
:103330000B480121FEF70EB8204638BD4408002096
:103340004C08002038080020883B00005D30000059
:10335000AC3B000095320000B03B0000B92F0000EC
:10336000A83B00004FF080430022C3F80021012257
:103370001A60D3F80021002AFBD001220021C3F8F3
:103380001825C3F804119A604FF08042D2F8043136
:10339000002BFBD070470000144B0022C3F8002123
:1033A00001225A60D3F80021002AFBD00022C3F882
:1033B0000C2101229A600D4B1A46D3F80C110029FA
:1033C000FBD0D3F80034012B08BF09494FF00003AC
:1033D00008BF0868C2F8103118BF184601231361EE
:1033E000024AD2F81031002BFBD070470010004089
:1033F000580800202DE9F041FFF7B4FFFDF778FFF2
:1034000008B1FDF7B3FE4FF480410020FDF78AF9C3
:1034100008B1FDF7ABFEFDF7BFF800210120FFF773
:1034200053FF08B1FDF7A2FEFFF732FD1D4B1E4A08
:10343000C3F804251220FFF73BFF1C4C1C4B1D4911
:10344000E41AE408240444F0030405462046FDF78A
:103450001BFB19492046FDF717FB15B12846FDF760
:1034600085FEFDF7B9F90028FBD1144FDFF8508035
:10347000FFF792FF06460A20FFF71AFF3946054676
:103480002046FDF701FB15B12846FDF76FFE3246D9
:1034900041462046FDF7FCFAFDF79EF90028FBD1D6
:1034A000E6E700BF00100040580800206039000027
:1034B00040390000B43B0000D43B0000EA3B000070
:1034C000FE3B0000054B1B68082B01BF044B18682E
:1034D000B0FA80F0400918BF00207047300100109A
:1034E0003401001008B54FF080430022C3F80C21CE
:1034F000C3F81021C3F838254FF0805203F540433C
:10350000D2F80414C3F82015D2F80814C3F824150F
:10351000D2F80C14C3F82815D2F81014C3F82C15DF
:10352000D2F81414C3F83015D2F81814C3F83415AF
:10353000D2F81C14C3F84015D2F82014C3F844156F
:10354000D2F82414C3F84815D2F82814C3F84C153F
:10355000D2F82C14C3F85015D2F83014C3F854150F
:10356000D2F83414C3F86015D2F83814C3F86415CF
:10357000D2F83C14C3F86815D2F84014C3F86C159F
:10358000D2F84424C3F87025FFF79CFF10B1384BE4
:10359000384A1A60FFF796FF18B1374BFB22C3F881
:1035A0001825FFF78FFF48B13449354B0A681B686F
:1035B00022F00F0203F00F0313430B60FFF782FFAB
:1035C00018B1304B4FF400721A604FF08043D3F8BB
:1035D0000024D20744BF6FF00102C3F800242A4A36
:1035E000D2F8883043F47003C2F88830BFF34F8FAD
:1035F000BFF36F8F4FF01023D3F80022002A03DBB4
:10360000D3F80432002B2FDA204B0122C3F8042513
:10361000D3F80024002AFBD04FF010221221C2F868
:103620000012D3F80024002AFBD04FF010231222FE
:10363000C3F80422154B1A46D3F800140029FBD016
:103640000021C3F80415D2F80034002BFBD0BFF3DF
:103650004F8F0D490E4BCA6802F4E0621343CB60F2
:10366000BFF34F8F00BFFDE70A4B0B4A1A6008BD3E
:103670008C5600404881030000F00040E40E0040FA
:10368000580200104096024000ED00E000E00140CA
:103690000400FA05240000200090D00353EA020C35
:1036A00061D02DE9F04BB3FA83F51E0007BFB2FAE3
:1036B00082F502FA05F403FA05F41646C5F1200571
:1036C0001EBF22FA05F73C43203556EA044C4FEA68
:1036D000144418BF0134A3464FF00009C846904275
:1036E00071EB030C39D3094207BFB0FA80F700FA37
:1036F00007F6B1FA81F701FA07F6C7F120071EBFF6
:1037000020FA07FC46EA0C062037B6FBFBFC7F1BC1
:10371000103F07F01F04C4F120060CFA04F42CFA41
:1037200006F644BF34460026202FA4BF26460024B8
:1037300054EA060C08BF012418EB040849EB0609FB
:10374000A4FB027CC01B06FB02CC04FB03CC71EB88
:103750000C01904271EB030CC5D20B460246494660
:103760004046BDE8F08BB2FBF3F200007F2805D89D
:10377000034B185C034B5B5C18407047002070479C
:103780002C3C0000AC3C0000A0F16103192B98BF59
:1037900020387047A0F14103192B98BF20307047A3
:1037A0007F2805D8034B185C034B5B5C18407047BF
:1037B000002070472C3C0000AC3C0000A0F16103ED
:1037C000192B98BF20387047A0F14103192B98BFDF
:1037D000203070477F299ABF017001206FF02E00C2
:1037E00070475AB10A787F2A0AD800B102600021D6
:1037F00019605960501A18BF0120704700207047A7
:103800006FF02E007047000008B5034B5B689B68A3
:103810001B68984708BD00BF2800002008B5092193
:10382000FFF7F2FF08BD844640EA010313F0030FDF
:1038300018D18446202A0BD32DE9F007B1E8F80708
:10384000A0E8F807A2F12002202AF7D2BDE8F0078D
:10385000042A07D351F8043B40F8043BA2F10402C8
:10386000042AF7D2002A05D011F8013B00F8013BE9
:10387000013AF9D1604670478446002A2DD010F0F5
:10388000030F04D000F8011B013A26D0F7E7C9B2B4
:1038900041EA012141EA0141202A12D3A2F120028A
:1038A0002DE9F0030B460C460D460E460F468846A2
:1038B0008946A0E8FA03203AFBD2BDE8F0032032A3
:1038C0000BD0042A05D340F8041B043A05D0042A7F
:1038D000F9D200F8011B013AFBD16046704700F1B4
:1038E000010110F0030F11D010F8012B002A23D092
:1038F00010F0030F0AD010F8012B002A1CD010F092
:10390000030F03D010F8012B002A15D02DE9700009
:103910004FF001324FF0803350F8044BA4EB020516
:1039200025EA04051D4000D1F6E7A0F1040070BCB3
:0E39300010F8012B002AFBD1A0EB010070471C
:103940006F3B000000000000763B0000000000001C
:103950007A3B0000000000007F3B000000000000F8
:10396000F239000000000303CC3A00000000000020
:10397000F53A000000000000663B00000000000077
:10398000C439000000000000D039000014000020FD
:103990008000002048010020500100208800002005
:0439A000180000000B
:1039A400FFFFFFFFFFFFFFFFFFFFFFFFFFFFFFFF23
:1039B40000000000000000000000D6010601000025
:1039C4000105000065050000A10400007561727422
:1039D4005F6C6F675F6261636B656E640042616315
:1039E4006B656E647320666C7573686564006170E2
:1039F40070000000740500207F000000F405002022
:103A04001B5B306D002573001B5B313B33316D0054
:103A140025734C6F67732064726F7070656420281F
:103A240025642925730D0A003C25733E2025733A2D
:103A34002000202530327800202020007C002563DF
:103A4400001B5B313B33306D001B5B313B33326D0C
:103A5400001B5B313B33336D001B5B313B33346DF7
:103A6400001B5B313B33356D001B5B313B33366DE3
:103A7400001B5B313B33376D007761726E696E6793
:103A840000696E666F00646562756700043A000041
:103A9400453A00000C3A00004D3A0000553A000047
:103AA4005D3A0000653A00006D3A0000753A000086
:103AB40000000000E23A00007D3A0000853A000070
:103AC4008A3A00000D0E0F106170705F6275747495
:103AD4006F6E000018060020466174616C206572E8
:103AE400726F720053797374656D207265736574B7
:103AF400006170705F74696D6572000001000600FA
:103B04000000000064060020F91100005254432014
:103B1400696E7374616E636520616C72656164794A
:103B240020696E697469616C697A65642E00525407
:103B3400433A20696E697469616C697A65642E0020
:103B44000000000000000000000000000338FDD861
:103B54007047303132333435363738394142434493
:103B64004546736F72746C697374004750494F54BF
:103B7400450050525300554152540055415254454A
:103B8400000000000B000300C12F00000C00030024
:103B9400C12F000018000300C12F0000190003000A
:103BA400C12F0000D8070020F807002018080020C3
:103BB400526164696F207265636569766572206518
:103BC40078616D706C6520737461727465642E0025
:103BD4005761697420666F7220666972737420700D
:103BE40061636B6574005061636B65742077617306
:103BF4002072656365697665640054686520636F47
:103C04006E74656E7473206F6620746865207061CD
:103C1400636B6167652069732025750043000000AC
:103C2400504F5349580000002020202020202020FD
:103C34002068282828282020202020202020202018
:103C440020202020202020204810101010101010B8
:103C540010101010101010108484848484848484C0
:103C640084841010101010101081818181818101D1
:103C74000101010101010101010101010101010130
:103C840001010110101010101082828282828202BF
:103C94000202020202020202020202020202020200
:103CA4000202021010101020000703200417020162
:103CB4000857104080000000203C0000243D000014
:103CC400383E000053756E004D6F6E0054756500EC
:103CD4005765640054687500467269005361740046
:103CE400000000004A616E00466562004D6172008A
:103CF400417072004D6179004A756E004A756C001E
:103D040041756700536570004F6374004E6F760011
:103D14004465630000000000414D00504D00000068
:103D24005C3E0000583E0000583E0000583E000033
:103D3400583E0000583E0000583E0000583E000027
:103D4400583E0000583E0000FFFFFFFFFFFFFFFF4B
:103D5400FFFFFFFFFFFF0000983D0000C83C00008C
:103D6400D43D0000E83C00001C3D00007C3D000008
:103D74002C3E0000883D0000256D2F25642F2579F9
:103D8400000000002561202562202565202554209F
:103D94002559000053756E646179004D6F6E64613E
:103DA400790054756573646179005765646E657351
:103DB400646179005468757273646179004672694C
:103DC4006461790053617475726461790000000064
:103DD4004A616E75617279004665627275617279C5
:103DE400004D6172636800417072696C004D6179C5
:103DF400004A756E65004A756C7900417567757384
:103E0400740053657074656D626572004F63746FFE
:103E1400626572004E6F76656D626572004465631B
:103E2400656D62657200000025483A254D3A2553B8
:103E3400000000006D37000089370000953700004E
:103E4400A1370000BD370000C9370000D537000096
:0A3E5400E3370000000000002E001C
:103E60000000000000200040000000000020004092
:103E70000000000000000000FF00000000100140F2
:103E8000110004000090D003BC3C0000BC3C0000CA
:0C3E9000BC3C0000BC3C0000BC3C00003E
:040000030000037581
:00000001FF
